:020000040800F2
:1050000000500020F1AF000879A600087DA6000836
:10501000A1A60008C5A60008E9A600080000000037
:105020000000000000000000000000000DA70008C4
:105030000FA700080000000011A7000813A7000830
:1050400045B0000845B0000845B0000849A900086F
:1050500045B0000845B0000861A7000881A7000816
:10506000A1A70008D5A70008F5A7000845B00008CB
:1050700045B0000845B0000845B00008B1A90008D7
:10508000F56300080164000821A7000845B0000886
:10509000B5A9000845B0000845B0000815A80008EB
:1050A00045B0000845B0000845B00008DDA800087C
:1050B00029A9000839A900080D600008D963000873
:1050C000E563000845B0000845B0000851A7000896
:1050D00045B0000831A7000841A7000845B0000806
:1050E00065A8000871A9000845B00008000000008C
:1050F00000000000000000000000000000000000B0
:0C51000000000000000000005FF808F153
:1051100081F0004102E000BF83F0004330B54FEA68
:1051200041044FEA430594EA050F08BF90EA020FD5
:105130001FBF54EA000C55EA020C7FEA645C7FEA68
:10514000655C00F0E2804FEA5454D4EB5555B8BF8B
:105150006D420CDD2C4480EA020281EA030382EAFC
:10516000000083EA010180EA020281EA0303362D8E
:1051700088BF30BD11F0004F4FEA01314FF4801C61
:105180004CEA113102D0404261EB410113F0004F73
:105190004FEA03334CEA133302D0524263EB43032A
:1051A00094EA050F00F0A780A4F10104D5F1200EC8
:1051B0000DDB02FA0EFC22FA05F2801841F1000123
:1051C00003FA0EF2801843FA05F359410EE0A5F1F7
:1051D00020050EF1200E012A03FA0EFC28BF4CF028
:1051E000020C43FA05F3C01851EBE37101F00045DE
:1051F00007D54FF0000EDCF1000C7EEB00006EEBEB
:105200000101B1F5801F1BD3B1F5001F0CD3490874
:105210005FEA30004FEA3C0C04F101044FEA4452CB
:1052200012F5800F80F09A80BCF1004F08BF5FEA52
:10523000500C50F1000041EB045141EA050130BD32
:105240005FEA4C0C404141EB010111F4801FA4F1D5
:105250000104E9D191F0000F04BF01460020B1FA2A
:1052600081F308BF2033A3F10B03B3F120020CDA62
:105270000C3208DD02F1140CC2F10C0201FA0CF040
:1052800021FA02F10CE002F11402D8BFC2F1200CA5
:1052900001FA02F120FA0CFCDCBF41EA0C0190405B
:1052A000E41AA2BF01EB0451294330BD6FEA0404A4
:1052B0001F3C1CDA0C340EDC04F11404C4F120028F
:1052C00020FA04F001FA02F340EA030021FA04F3A1
:1052D00045EA030130BDC4F10C04C4F1200220FAF8
:1052E00002F001FA04F340EA0300294630BD21FA36
:1052F00004F0294630BD94F0000F83F4801306BFFC
:1053000081F480110134013D4EE77FEA645C18BFEF
:105310007FEA655C29D094EA050F08BF90EA020F86
:1053200005D054EA000C04BF1946104630BD91EA7E
:10533000030F1EBF0021002030BD5FEA545C05D181
:105340004000494128BF41F0004130BD14F58004C0
:105350003CBF01F5801130BD01F0004545F0FE4134
:1053600041F470014FF0000030BD7FEA645C1ABF69
:10537000194610467FEA655C1CBF0B46024650EAA0
:10538000013406BF52EA033591EA030F41F40021CC
:1053900030BD00BF90F0000F04BF0021704730B552
:1053A0004FF4806404F132044FF000054FF0000127
:1053B00050E700BF90F0000F04BF0021704730B5E8
:1053C0004FF4806404F1320410F0004548BF4042BD
:1053D0004FF000013EE700BF42004FEAE2014FEA12
:1053E00031014FEA02701FBF12F07F4393F07F4FED
:1053F00081F06051704792F0000F14BF93F07F4F1F
:10540000704730B54FF4607401F0004521F0004161
:1054100020E700BF50EA010208BF704730B54FF0E7
:1054200000050AE050EA010208BF704730B511F0EC
:10543000004502D5404261EB41014FF4806404F124
:1054400032045FEA915C3FF4DCAE4FF003025FEAA6
:10545000DC0C18BF03325FEADC0C18BF033202EB2E
:10546000DC02C2F1200300FA03FC20FA02F001FA88
:1054700003FE40EA0E0021FA02F11444C1E600BF27
:1054800070B54FF0FF0C4CF4E06C1CEA11541DBFDA
:105490001CEA135594EA0C0F95EA0C0F00F0DEF8A5
:1054A0002C4481EA030621EA4C5123EA4C5350EA8A
:1054B000013518BF52EA033541F4801143F48013DB
:1054C00038D0A0FB02CE4FF00005E1FB02E506F06C
:1054D0000042E0FB03E54FF00006E1FB03569CF0C1
:1054E000000F18BF4EF0010EA4F1FF04B6F5007FC7
:1054F00064F5407404D25FEA4E0E6D4146EB060639
:1055000042EAC62141EA55514FEAC52040EA5E50C1
:105510004FEACE2EB4F1FD0C88BFBCF5E06F1ED86B
:10552000BEF1004F08BF5FEA500E50F1000041EBA2
:10553000045170BD06F0004646EA010140EA02004F
:1055400081EA0301B4EB5C04C2BFD4EB0C0541EA71
:10555000045170BD41F480114FF0000E013C00F386
:10556000AB8014F1360FDEBF002001F0004170BDAA
:10557000C4F10004203C35DA0C341BDC04F11404C3
:10558000C4F1200500FA05F320FA04F001FA05F24F
:1055900040EA020001F0004221F0004110EBD3701C
:1055A00021FA04F642EB06015EEA430E08BF20EA48
:1055B000D37070BDC4F10C04C4F1200500FA04F3EB
:1055C00020FA05F001FA04F240EA020001F000417D
:1055D00010EBD37041F100015EEA430E08BF20EAF0
:1055E000D37070BDC4F1200500FA05F24EEA020E38
:1055F00020FA04F301FA05F243EA020321FA04F067
:1056000001F0004121FA04F220EA020000EBD3701D
:105610005EEA430E08BF20EAD37070BD94F0000F1D
:105620000FD101F00046400041EB010111F4801F51
:1056300008BF013CF7D041EA060195F0000F18BF02
:10564000704703F00046520043EB030313F4801F3E
:1056500008BF013DF7D043EA0603704794EA0C0FF8
:105660000CEA135518BF95EA0C0F0CD050EA41060E
:1056700018BF52EA4306D1D181EA030101F000418B
:105680004FF0000070BD50EA410606BF10461946B3
:1056900052EA430619D094EA0C0F02D150EA0136BF
:1056A00013D195EA0C0F05D152EA03361CBF104600
:1056B00019460AD181EA030101F0004141F0FE419F
:1056C00041F470014FF0000070BD41F0FE4141F423
:1056D000780170BD70B54FF0FF0C4CF4E06C1CEA23
:1056E00011541DBF1CEA135594EA0C0F95EA0C0FD8
:1056F00000F0A7F8A4EB050481EA030E52EA033593
:105700004FEA013100F088804FEA03334FF08055B3
:1057100045EA131343EA12634FEA022245EA1115E0
:1057200045EA10654FEA00260EF000419D4208BF91
:10573000964244F1FD0404F5407402D25B084FEA3E
:105740003202B61A65EB03055B084FEA32024FF4EA
:1057500080104FF4002CB6EB020E75EB030E22BF47
:10576000B61A754640EA0C005B084FEA3202B6EB07
:10577000020E75EB030E22BFB61A754640EA5C00B6
:105780005B084FEA3202B6EB020E75EB030E22BF46
:10579000B61A754640EA9C005B084FEA3202B6EB47
:1057A000020E75EB030E22BFB61A754640EADC0006
:1057B00055EA060E18D04FEA051545EA16754FEA68
:1057C00006164FEAC30343EA52734FEAC2025FEA86
:1057D0001C1CC0D111F4801F0BD141EA00014FF015
:1057E00000004FF0004CB6E711F4801F04BF0143E6
:1057F0000020B4F1FD0C88BFBCF5E06F3FF6AFAE02
:10580000B5EB030C04BFB6EB020C5FEA500C50F191
:10581000000041EB045170BD0EF0004E4EEA113114
:1058200014EB5C04C2BFD4EB0C0541EA045170BD1B
:1058300041F480114FF0000E013C90E645EA060E5F
:105840008DE60CEA135594EA0C0F08BF95EA0C0F8D
:105850003FF43BAF94EA0C0F0AD150EA01347FF4D5
:1058600034AF95EA0C0F7FF425AF104619462CE7AC
:1058700095EA0C0F06D152EA03353FF4FDAE10460F
:10588000194622E750EA410618BF52EA43067FF460
:10589000C5AE50EA41047FF40DAF52EA43057FF4F0
:1058A000EBAE12E74FF0FF3C06E000BF4FF0010CFB
:1058B00002E000BF4FF0010C4DF804CD4FEA410C5F
:1058C0007FEA6C5C4FEA430C18BF7FEA6C5C1BD02C
:1058D00001B050EA410C0CBF52EA430C91EA030FAD
:1058E00002BF90EA020F0020704710F1000F91EA0A
:1058F000030F58BF994208BF90422CBFD8176FEAD8
:10590000E37040F0010070474FEA410C7FEA6C5CA5
:1059100002D150EA013C07D14FEA430C7FEA6C5CAC
:10592000D6D152EA033CD3D05DF8040B704700BFD8
:105930008446104662468C461946634600E000BF26
:1059400001B5FFF7B7FF002848BF10F1000F01BDF8
:105950004DF808EDFFF7F4FF0CBF012000205DF8C3
:1059600008FB00BF4DF808EDFFF7EAFF34BF012048
:1059700000205DF808FB00BF4DF808EDFFF7E0FFE1
:1059800094BF012000205DF808FB00BF4DF808ED32
:10599000FFF7CEFF94BF012000205DF808FB00BF99
:1059A0004DF808EDFFF7C4FF34BF012000205DF87B
:1059B00008FB00BF4FEA410212F5001215D211D5C3
:1059C0006FF47873B3EB625212D94FEAC12343F0FC
:1059D000004343EA505311F0004F23FA02F018BF7E
:1059E000404270474FF00000704750EA013005D147
:1059F00011F0004008BF6FF0004070474FF000000A
:105A0000704700BF4FEA4102B2F1E04324BFB3F553
:105A1000001CDCF1FE5C0DD901F0004C4FEAC00225
:105A20004CEA5070B2F1004F40EB830008BF20F009
:105A30000100704711F0804F21D113F13872BCBFC3
:105A400001F00040704741F480114FEA5252C2F118
:105A50001802C2F1200C10FA0CF320FA02F018BF61
:105A600040F001004FEAC1234FEAD32303FA0CFCB4
:105A700040EA0C0023FA02F34FEA4303CCE77FEA43
:105A8000625307D150EA01331EBF4FF0FE4040F48D
:105A90004000704701F0004040F0FE4040F400003C
:105AA000704700BF80F0004002E000BF81F000417D
:105AB00042001FBF5FEA410392EA030F7FEA226CB4
:105AC0007FEA236C6AD04FEA1262D2EB1363C1BF44
:105AD000D218414048404140B8BF5B42192B88BFB3
:105AE000704710F0004F40F4000020F07F4018BFD6
:105AF000404211F0004F41F4000121F07F4118BFF6
:105B0000494292EA030F3FD0A2F1010241FA03FC9D
:105B100010EB0C00C3F1200301FA03F100F0004385
:105B200002D5494260EB4000B0F5000F13D3B0F14D
:105B3000807F06D340084FEA310102F10102FE2ABC
:105B400051D2B1F1004F40EBC25008BF20F001002C
:105B500040EA03007047490040EB000010F4000FDA
:105B6000A2F10102EDD1B0FA80FCACF1080CB2EB6D
:105B70000C0200FA0CF0AABF00EBC25052421843CC
:105B8000BCBFD0401843704792F0000F81F4000171
:105B900006BF80F400000132013BB5E74FEA410344
:105BA0007FEA226C18BF7FEA236C21D092EA030FB0
:105BB00004D092F0000F08BF0846704790EA010F2A
:105BC0001CBF0020704712F07F4F04D1400028BF57
:105BD00040F00040704712F100723CBF00F5000039
:105BE000704700F0004343F0FE4040F4000070476F
:105BF0007FEA226216BF08467FEA2363014642021B
:105C000006BF5FEA412390EA010F40F4800070472D
:105C10004FF0000304E000BF10F0004348BF4042D3
:105C20005FEA000C08BF704743F0964301464FF00F
:105C300000001CE050EA010208BF70474FF000036B
:105C40000AE000BF50EA010208BF704711F00043AC
:105C500002D5404261EB41015FEA010C02BF84467C
:105C60000146002043F0B64308BFA3F18053A3F5DB
:105C70000003BCFA8CF2083AA3EBC25310DB01FA22
:105C800002FC634400FA02FCC2F12002BCF1004FA6
:105C900020FA02F243EB020008BF20F00100704737
:105CA00002F1200201FA02FCC2F1200250EA4C008B
:105CB00021FA02F243EB020008BF20EADC707047D1
:105CC0004FF0FF0C1CEAD0521EBF1CEAD15392EADF
:105CD0000C0F93EA0C0F6FD01A4480EA010C4002BB
:105CE00018BF5FEA41211ED04FF0006343EA501015
:105CF00043EA5111A0FB01310CF00040B1F5000F57
:105D00003EBF490041EAD3715B0040EA010062F105
:105D10007F02FD2A1DD8B3F1004F40EBC25008BFEF
:105D200020F00100704790F0000F0CF0004C08BF0D
:105D300049024CEA502040EA51207F3AC2BFD2F1DA
:105D4000FF0340EAC250704740F400004FF00003E8
:105D5000013A5DDC12F1190FDCBF00F00040704722
:105D6000C2F10002410021FA02F1C2F1200200FA60
:105D700002FC5FEA310040F1000053EA4C0308BF27
:105D800020EADC70704792F0000F00F0004C02BF78
:105D9000400010F4000F013AF9D040EA0C0093F0F3
:105DA000000F01F0004C02BF490011F4000F013B4D
:105DB000F9D041EA0C018FE70CEAD15392EA0C0FBB
:105DC00018BF93EA0C0F0AD030F0004C18BF31F026
:105DD000004CD8D180EA010000F00040704790F0FC
:105DE000000F17BF90F0004F084691F0000F91F0A0
:105DF000004F14D092EA0C0F01D142020FD193EA66
:105E00000C0F03D14B0218BF084608D180EA0100ED
:105E100000F0004040F0FE4040F40000704740F0C9
:105E2000FE4040F4400070474FF0FF0C1CEAD05297
:105E30001EBF1CEAD15392EA0C0F93EA0C0F69D0F3
:105E4000A2EB030280EA010C49024FEA402037D05E
:105E50004FF0805343EA111143EA10130CF0004055
:105E60008B4238BF5B0042F17D024FF4000C8B4245
:105E700024BF5B1A40EA0C00B3EB510F24BFA3EB25
:105E8000510340EA5C00B3EB910F24BFA3EB9103F5
:105E900040EA9C00B3EBD10F24BFA3EBD10340EA4F
:105EA000DC001B0118BF5FEA1C1CE0D1FD2A3FF695
:105EB00050AF8B4240EBC25008BF20F0010070474A
:105EC0000CF0004C4CEA50207F32C2BFD2F1FF03ED
:105ED00040EAC250704740F400004FF00003013A1E
:105EE00037E792F0000F00F0004C02BF400010F4C2
:105EF000000F013AF9D040EA0C0093F0000F01F0D6
:105F0000004C02BF490011F4000F013BF9D041EAF7
:105F10000C0195E70CEAD15392EA0C0F08D142022A
:105F20007FF47DAF93EA0C0F7FF470AF084676E7FD
:105F300093EA0C0F04D14B023FF44CAF08466EE7D6
:105F400030F0004C18BF31F0004CCAD130F00042A4
:105F50007FF45CAF31F000437FF43CAF5FE700BFFC
:105F600030B5012185B0042009F0D8FE01240025B8
:105F70001E2368468DF800308DF801508DF80240E0
:105F80008DF8034009F000FBADF80A50ADF806505B
:105F90008DF80C500B4D0223ADF80430284645F621
:105FA000C05301A9ADF8083009F0B0FF28462146DA
:105FB0000AF007F92846214622460AF01CF905B0E6
:105FC00030BD00BF0008004073B50F4D1E230024F4
:105FD000012601A88DF804308DF805408DF8066083
:105FE0008DF8074009F0D0FA2246284631460AF0DB
:105FF00002F9284621460AF0E4F80420214609F077
:106000008DFE02B070BD00BF0008004008B5074813
:1060100001210AF029F938B1044801210AF02FF9C9
:10602000BDE8084000F064BC08BD00BF00080040A7
:10603000084B10B553F820400121204609F07AFEA4
:106040002046002109F076FE20460121BDE81040DF
:1060500009F064BE00820108084B10B553F82040D7
:106060000121204609F066FE2046002109F062FE6B
:1060700020460021BDE8104009F050BE0082010812
:106080002DE9F341144C8600A319054698681B6955
:106090000121184309F036FE032304EB45088DF86F
:1060A00006301C238DF80730B8F8183002AC0B4FBF
:1060B00024F8043D57F82500214609F057FC3E44DA
:1060C000B8F81C30B0682146ADF8043009F04EFC39
:1060D00002B0BDE8F08100BF00820108000000208E
:1060E000F7B50F4F032307EB40078DF80630042365
:1060F0008DF807303B8B02AC0A4E24F8043D214654
:10610000054656F8200009F031FC06EB8505BB8BEF
:10611000A8682146ADF8043009F028FC03B0F0BDB2
:10612000008201080000002070B5184D840025444D
:106130000E46286A012109F0D9FD154B4FF6FF7272
:10614000DA60002280211A619A61DA619A62AA6A91
:10615000596116F0010F4FF4405159621A601D4603
:1061600007D01023AB600B4B29462344186909F074
:10617000E5FAB30709D50023AB60064B04491C447C
:10618000A069BDE8704009F0D9BA70BD008201086D
:10619000801600200000002010B50C4B0C684968E8
:1061A0008000D9600A4912F480420144896A18BF0C
:1061B00020221A6210225C6019609A60054B034924
:1061C00018440069BDE8104009F0B8BA80160020F4
:1061D000008201080000002010B50C4B0C684968D3
:1061E0008000D9600A4912F400420144896A18BF4C
:1061F00020221A6200225C6019609A60054B0349F4
:1062000018448069BDE8104009F098BA8016002053
:106210000082010800000020CA0738B504460D4678
:1062200005D5084B03EB8003186909F00FFAAB079B
:1062300007D5044B03EB8404A069BDE8384009F09E
:1062400005BA38BD000000202DE9F743414F044650
:106250000E463D199046994600F0D8F801238DF876
:10626000073095F8303001A88DF8043095F83230B9
:106270008DF8053095F834308DF8063009F084F942
:10628000700217D495F8363001A88DF8043095F8CF
:1062900038308DF8053095F83A308DF8063009F031
:1062A00073F92D4B03EB84031A6A93889BB243F472
:1062B00080739380B9F1020F49D118F0010F21D0FA
:1062C000391991F83C3001A88DF8043091F83E302E
:1062D0008DF8053091F840308DF8063009F054F90A
:1062E0001D4BB10503EB84031B691A6842F00202DF
:1062F0001A601A6842F008021A6003D51A6842F060
:1063000004021A6018F0020F21D03B1993F84220C2
:1063100001A88DF8042093F8442093F846308DF8B6
:1063200005208DF8063009F02FF90B4B03EB8404A0
:10633000A3691A6842F002021A601A6842F0080261
:106340001A60F20403D51A6842F004021A6003B01E
:10635000BDE8F08300820108000000202DE9F3472A
:106360001C4E054606EB0508994698F8303002ACFD
:10637000002004F8043D8A468DF805008DF80600DB
:106380008DF807002046174609F0FEF81AF4800F32
:1063900006D198F8363020468DF8043009F0F4F82C
:1063A000B9F1020F13D1FA0707D5731993F83C30EE
:1063B00020468DF8043009F0E7F8BB0707D53544CF
:1063C00095F8423020468DF8043009F0DDF802B02F
:1063D000BDE8F08700820108014800F033BC00BF2F
:1063E0002800002008B5024800F0EAF8002008BDA7
:1063F00028000020014800F055B900BF2800002007
:10640000014800F0EBB900BF280000204FF4A06065
:1064100009F0B0B84FF0FF32826110220273FF2200
:10642000026100F055BE0000037B70B5012B0446ED
:1064300005D0037B102B02D0037B002B64D1207886
:10644000324D55F82020138823F001031B041B0C48
:106450001380FFF745FE2078FFF7FEFDE378022B5F
:1064600003D120786178FFF7D7FE2078FFF7E0FDB1
:106470002078FFF705FE2378E16955F823000388AB
:106480009BB243F00103038009F00EFB62692078A0
:1064900012F4801F07D01D4B53F82030198889B2A1
:1064A00041F040011980D10712D555F8203002F093
:1064B000FE06998989B241F001019981998921F0FB
:1064C000FE010904090C9981998989B231439981A6
:1064D000530007D555F820100B8823F480631B0464
:1064E0001B0C0B80E378022B02D16178FFF71CFEB6
:1064F000207861696278E378FFF7A6FE01232373B1
:10650000FFF72EFD002070BD012070BD200000208F
:1065100038B5037B0446012B04D0037B102B01D03C
:10652000037B2BBB2078FFF7DBFD2078114B53F862
:106530002020138823F001031B041B0C1380FFF79A
:106540008BFDE378022B03D120786178FFF764FE9E
:10655000207861696278E378FFF700FF00254FF04B
:10656000FF3325732561A361FFF72EFD284638BD53
:10657000012038BD200000200F4A10490346116059
:106580004BF6FF71D1804FF4806151814FF480410F
:106590000020918103211081908059700221D970CF
:1065A0004FF0FF3118739870186158609860586107
:1065B0009961DA61704700BFAC160020A086010027
:1065C00008B583780278012B354B3AD14168496888
:1065D000002936D1017B012902D0017B062930D167
:1065E00053F822304FF2FF029A82C278012A55D125
:1065F0009A8822F400721204120C9A809A8822F46B
:1066000080621204120C9A80062282611A8B920711
:1066100005D58269012A02D082690132F6D18369E7
:10662000012B02D08369013303D1BDE80840FFF795
:10663000F1BE4FF0FF3383610123037300F05AFD75
:106640002CE053F82230998A01F470610161102125
:1066500001734FF2FF0199820169C9050AD51988B2
:106660006FEA41416FEA514189B219801988C1F33B
:106670000E011980016989050AD519886FEA41411F
:106680006FEA514189B219801988C1F30E0119804E
:10669000036903690169104600F02EFD002008BD62
:1066A000200000204FF0FF3370B50278836104466C
:1066B0004448454950F8223051F822501E682E4275
:1066C00005460E4658D0636860690021596043044E
:1066D0004ED4A378002B4BD13C4B53F822309988F1
:1066E00021F400610904090C99800521A161998AAE
:1066F000490705D4A169012902D0A1690131F6D168
:10670000A16901291DD0A16901311AD04FF0FF31D3
:106710000002A1611DD4198889B241F40071198069
:106720000621A161198B890705D5A169012902D02C
:10673000A1690131F6D1A169012902D0A169013114
:1067400004D12046BDE87040FFF764BE4FF0FF3132
:10675000A1611F4951F82220116821F00101116047
:106760009A8822F400721204120C9A800123237377
:10677000204600F0BFFC13E01649186851F82210BB
:1067800008420DD11968144B53F82230194207D032
:106790000F49102351F822202373526863685A600E
:1067A00023780C4955F8232051F8230056F823107C
:1067B0000843094951F8231040EA010353600020BF
:1067C00070BD00BF4800002070820108200000203A
:1067D000100000206882010860820108F8B5027884
:1067E0003D4E4FF0FF3383613C4D56F8223055F853
:1067F00022101F6804460F4248D083680021596068
:1068000043691F043FD48378002B53D1344B53F892
:106810002230198889B241F400711980998821F4D5
:1068200000610904090C998006218161198B89078F
:1068300005D5A169012902D0A1690131F6D1A1696B
:10684000012902D0A169013104D12046BDE8F840F8
:10685000FFF7E0BD4FF0FF31A1612249204651F81A
:106860002220116821F0010111609A8822F400723F
:106870001204120C9A809A8822F480521204120C8C
:106880009A800123237300F036FC13E01649186840
:1068900051F8221008420DD11968144B53F82230D8
:1068A000194207D00F49102351F822202373526850
:1068B000A3685A6023780C4956F8232051F8230026
:1068C00055F823100843094951F8231040EA010301
:1068D00053600020F8BD00BF480000205882010826
:1068E0002000002018000020508201084882010882
:1068F00010B500240D4BE05898B183695BB94FF097
:10690000FF33836110230373036953B9FF230361CA
:1069100000F0DEFB05E08369013302D08369013BAF
:1069200083610434082CE5D110BD00BF5000002065
:1069300038B5C3780446012B02D0022B0AD049E0B7
:106940000278274B53F822309A8892B242F4806240
:106950009A8043E00078224D55F82020938823F454
:1069600000731B041B0C938093889BB243F4006359
:106970009380237B062B01D0012910D161686269C5
:10698000FFF70AFC227855F822108B8823F48053F5
:106990001B041B0C8B80134B53F8223015E0237B18
:1069A0000A2B01D0022919D16269A168FFF714FCF2
:1069B000A278237832B955F82320918889B241F41E
:1069C00080519180084A52F823301A6842F001023F
:1069D0001A6003E010230373012038BD002038BD86
:1069E00020000020100000201800002038B5037B94
:1069F000044698074BD4237B032B48D0237B052BDD
:106A000045D0237B002B42D0237B102B3FD0022389
:106A1000237363691F4D13F0807F22781AD10621FA
:106A200055F82200A161018B890705D5A1690129CB
:106A300002D0A1690131F6D1A169012902D0A16971
:106A4000013104D12046BDE83840FFF7E3BC4FF0E8
:106A5000FF31A161A17881B955F82220DB031188AB
:106A600089B241F48071118003D520460121FFF7DE
:106A70005FFF032323731F23A3612378002055F8AE
:106A800023309A8892B242F400729A8038BD012075
:106A900038BD00BF2000002038B5037B04469D07A9
:106AA00000F1CB80037B032B00F0C780037B052B19
:106AB00000F0C380037B002B00F0BF80037B102B12
:106AC00000F0BB804269022312F0807F03735C4DAB
:106AD00016D106238361037855F823100B8B980792
:106AE00005D5A369012B02D0A3690133F6D1A369AF
:106AF000012B7CD0A369013379D04FF0FF33A36120
:106B0000E378022B07D1A3685B68012B03D142F421
:106B100000126261E3706269D30371D4A378002B21
:106B20006ED1237855F82330198889B241F48071E9
:106B300019801F21A161998AC80705D4A16901297B
:106B400002D0A1690131F6D1A16901294FD0A16913
:106B500001314CD04FF0FF31A161E1698989B1F574
:106B6000804F18D1A168896801F0FE0119820421C3
:106B7000A161998A890705D4A169012902D0A16977
:106B80000131F6D1A169012931D0A16901312ED09D
:106B90004FF0FF31A161998A198B0321A161998A74
:106BA000080605D4A169012902D0A1690131F6D1F5
:106BB000A16901291BD0A169013118D04FF0FF3123
:106BC000A161910322D4A268127B1A820322A261DE
:106BD0009A8A120605D4A269012A02D0A26901325A
:106BE000F6D1A369012B02D0A369013304D1204659
:106BF000BDE83840FFF70EBC4FF0FF33A36105E05E
:106C0000E178022902D12046FFF792FEA2780523FF
:106C10002373237842B955F82320118889B241F4AF
:106C2000807111801F22A26155F8233000209A88BC
:106C300092B242F400729A8038BD012038BD00BF84
:106C40002000002073B50278954E0023ADF8063081
:106C500056F822300446998A01F0DF01ADF806109B
:106C60008178002930D1BDF80610C9072ED54FF024
:106C7000FF318161C1698989B1F5804F13D1017BF1
:106C8000052907D18168896841F00101C9B21982DB
:106C90000A2305E04168896801F0FE011982062394
:106CA00023730423A361E378012B0DD1237B0A2BEB
:106CB0000AD1A3685B68022B06D156F822301A88E5
:106CC00092B242F400621A800025FDE1BDF8061080
:106CD00001F0020189B2002900F08880C278022AFE
:106CE0000BD1017B062901D1416803E0017B0A2910
:106CF00003D181684968013101E04FF0FF31A161A2
:106D0000217B0A290DD1012A0BD1A1684D6845B913
:106D1000198889B241F400711980998A1B8B2273FA
:106D2000D2E1237B0A2B05D1012A03D1204602217F
:106D3000FFF7FEFD237B21780A2B15D1A3685B6842
:106D4000012B11D156F821301A8822F480621204E6
:106D5000120C1A8072B69A8A1A8B1A8892B242F46E
:106D600000721A8062B618E0E378012B11D1237B00
:106D70000A2B0ED1A3685B68022B0AD156F821209A
:106D8000938A138B138823F480631B041B0C1380DA
:106D900003E056F821309A8A1B8B636913F480351F
:106DA00092D1227B062A1CD19B031AD4626856F822
:106DB0002130127B1A820322A2619A8A160605D418
:106DC000A269012A02D0A2690132F6D1A369012B7E
:106DD00000F06281A369013300F05E814FF0FF3360
:106DE000A36120460321FFF7A3FD6DE1BDF8062056
:106DF000150657D5027B062A54D1C278012A7FF4A2
:106E000063AF426855686DB1106804781C8253689E
:106E1000013B53605368002B3FF456AF01301060C4
:106E20000D4651E1426912F4000004D11A8892B271
:106E300042F400721A809A88062122F40072120429
:106E4000120C9A809A8822F480621204120C9A80A2
:106E5000A16180B99A8A02F084027AB1A269012AFA
:106E60000CD0A2690132F5D108E0A269012A05D04F
:106E7000A269013202D09A8A1006F6D4A369012BC6
:106E800000F00A81A369013300F006814FF0FF335F
:106E9000A36101232373204600F02CF914E100BF05
:106EA00020000020BDF8062051067FF50DAF227BA3
:106EB0000A2A7FF409AFE278012A7FF405AFA268BD
:106EC0005168032900F2AF805168012906D11B8A5D
:106ED00012681370A3685A68013A5A60A1684B6837
:106EE000022B3FD1237856F823309A8822F480620F
:106EF0001204120C9A800522A2619A8A520705D4C4
:106F0000A269012A02D0A2690132F6D1A269012A3E
:106F100000F0C280A269013200F0BE804FF0FF3263
:106F2000A2611A8892B242F400721A801B8A0A681F
:106F30001370A3681A68511C1960596801395960A7
:106F4000237856F823301B8A5370A3685A68013A95
:106F50005A60237856F82320138823F400631B0417
:106F60001B0C1380A1684B68032B66D1237856F85D
:106F700023309A8822F480621204120C9A8005222F
:106F8000A2619A8A550705D4A269012A02D0A26992
:106F90000132F6D1A269012A7ED0A26901327BD0EA
:106FA0004FF0FF32A2611A8822F480621204120CA0
:106FB0001A801B8A0A681370A3681A68511C19602A
:106FC000596801395960237856F82330198889B2F5
:106FD00041F4007119801B8A5370A3681A68511C10
:106FE00019605968013959600323A361237856F861
:106FF0002330998A480603D5A169012907D14BE0BE
:10700000A1690129F8D0A1690131F2D1F4E7A169A0
:10701000013141D04FF0FF31A1611B8A5370A36849
:107020005A680A4408E012681B8A1370A3681A6839
:1070300001321A605A68013A5A60A3685D68002DEF
:107040007FF442AE237856F823309A8822F40072F7
:107050001204120C9A809A8822F480621204120C94
:107060009A809A8A1A8A6269910204D522F40012DF
:1070700062610222E2700622A2611A8B920705D594
:10708000A269012A02D0A2690132F6D1A269012ABD
:1070900002D0A269013204D12046FFF7BBF90546B0
:1070A00012E04FF0FF32A2611A88204692B242F4F9
:1070B00080621A801A8822F400621204120C1A806C
:1070C0000123237300F017F8284602B070BD00BFFB
:1070D00007B5064B022000933921054A002307F02B
:1070E0002FFB012003B05DF804FB00BF0CAF0108CB
:1070F000788201087047704707B5064B01910093ED
:107100000220BD21044A002307F01AFB03B05DF8FA
:1071100004FB00BF14AF010892820108014B036019
:10712000704700BF1084010810B5034B044603608C
:1071300000F05AFC204610BD1084010830B5364BD3
:107140008DB01221354A00930220002307F0F8FA8F
:107150000E2000F047FC0221044600F04DFD2046C1
:1071600000F0D6FD20460AA900F099FE00B32C4B92
:10717000022000939DF82830192101939DF82930B1
:10718000264A02939DF82A3003939DF82B300493EE
:107190009DF82C3005939DF82D3006939DF82E30E8
:1071A00007939DF82F300893002307F0C9FAD9E719
:1071B000204600F019FC242000F014FC194C022198
:1071C000194A054600F05EFC2420256000F00AFC08
:1071D0000221164A054600F055FC1020656000F0BB
:1071E00001FC054600F0E8FE0C20A56000F0FAFB6B
:1071F000054600F0BFFF2820E56000F0F3FB0546E0
:1072000001F0C2F80C20256100F0ECFB054601F00E
:10721000D7F965610DB030BD1EAF0108AC82010821
:1072200038AF0108DC040020580000206000002076
:107230002DE9F043764C93B009AD42F2107001F0A5
:1072400073FF2946206800F02FFC206800F046FC00
:1072500007463946206800F09FFC8146206800F010
:107260003BFC6C4E804638460096FEF7B5F8CDE9FB
:1072700002014846FEF7B0F8674A0023CDE9040151
:10728000CDF8188002203421079507F059FA2946D5
:10729000606800F009FC606800F020FC0746394691
:1072A000606800F079FC8146206800F015FC80469B
:1072B00038460096FEF790F8CDE902014846FEF701
:1072C0008BF8554ACDE90401002302203A21CDF87C
:1072D0001880079507F034FA206901F00DF90128AC
:1072E0001AD1206901F050F90646206901F04EF9E3
:1072F0004A4B054630460093FEF76EF8CDE9020191
:107300002846FEF769F8444ACDE90401002302202B
:107310003E2107F015FA07E0414B0220009340217F
:107320003D4A002307F00CFA606901F061F9012879
:1073300010D1374B586901F059F93A4B0093FEF7D9
:107340004BF8354ACDE9020100230220442107F021
:10735000F7F907E0344B0220009346212E4A002320
:1073600007F0EEF9E06800F01BFF0128284D1AD164
:10737000E86800F0ADFE0646E86800F0A1FE2B4B81
:10738000054630460093FEF727F8CDE9020128466E
:10739000FEF722F8204ACDE90401002302204B2108
:1073A00007F0CEF907E0224B022000934E211A4A43
:1073B000002307F0C5F9A06800F01AFE0128144D5B
:1073C0001AD1A86800F07AFE0646A86800F074FE9C
:1073D000184B044630460093FDF7FEFFCDE902014D
:1073E0002046FDF7F9FF0C4ACDE9040100230220F5
:1073F000522107F0A5F907E00F4B0220009354211A
:10740000054A002307F09CF913B0BDE8F08300BFE4
:10741000DC04002050AF0108B982010890AF0108D8
:10742000A5AF0108B3AF0108BAAF0108CAAF0108A0
:10743000E0AF0108F0AF010812B0010813B5084C25
:10744000002100910A460B46204602F0F3F8054958
:10745000054A204602B0BDE810400DF0EBBB00BF6E
:10746000F40400201D71000864060020013101EBC6
:10747000420291420BD0030F092B94BF30333733B4
:1074800001F8013C0023000101F8023BF1E77047DD
:107490001F4B10B51A88032A04D80420014618800F
:1074A00008F0B0F84FF000604FF4A04108F0A0F8E9
:1074B0000124184B184821461C7008F0AFFA06F05A
:1074C000A1FA05F087FF2146402008F00FFC6FF07D
:1074D0007F4006F0F1F8E72006F06AF90F4B1C70C8
:1074E00005F0C2FF7D2008F031FC18B10C4B1C7078
:1074F00008F040FC40F6B83006F010F806F068FDE1
:1075000006F0E2FF074A01231370074A137010BD0B
:107510006816002044160020000430007415002076
:1075200020200020FC150020F215002037B5334C38
:107530002388042B04D805210420218008F062F858
:107540002F4B304D0093022000239F212E4A07F03D
:10755000F7F82B7813B12D4802F056FE2B7853B173
:107560002388052B05D8254B06210420198008F017
:1075700049F802F0CDFE2B7863B1254B1B784BB94F
:10758000244B1B7833B1244B1B781BB9234B1B783E
:10759000002BE3D0224B1B78002BDFD1214B1B7833
:1075A000002BDBD11D4B1B78012B0FD01E4B6BB179
:1075B0002388062B05D8114B07210420198008F0D9
:1075C00021F8FFF7BBFD154B01221A70174B002B5A
:1075D000C4D02388072B05D8084B08210420198024
:1075E00008F010F8FFF724FE2388082BB6D8034BC9
:1075F00009210420198008F005F8AFE7681600207B
:107600001EB00108FC150020C5820108C58B0008CA
:10761000B1150020F215002072150020FC04002096
:1076200073150020202000203D71000831720008F1
:10763000F8B5524B1A6812B11A68013A1A60504BE9
:10764000504D1B783BB1504B1B78002B28D04F4B33
:10765000002B47D124E04E4C2368264613B1236803
:10766000013B0FE04B4B1B78D3B94B4B1B78BBB99D
:107670004A4B1B78A3B94A4F3B782BB1E72006F061
:107680000BF9142323600BE02B78002B2DD1E7207E
:1076900006F0BCF8434B1B78002B34D03223336008
:1076A0002B7833B1404C23781BB92EE05A68013255
:1076B0005A603E4B1A68B2F57A7F0FD300221A60E7
:1076C00008F072FA3A4B4FF6FF711A888A4254D08A
:1076D00019800420BDE8F84007F094BF1A68013211
:1076E0001A60F8BD01F0B8FADAE7324B1B78002BCC
:1076F000CDD04FF6FF7005F0DFFFE72006F058F819
:1077000001233B70CCE76423C9E7234B1B788BB183
:10771000294B47F22F5259689142C7D9BFF34F8F77
:10772000264A274BD16801F4E0610B43D360BFF3D5
:107730004F8FFEE7174D2B7803F0FF0633B9304625
:1077400006F0C2F940F6B73398420DD8002006F093
:10775000BBF941F657339842ABD9002006F0BCF98B
:10776000184B01221A70A4E7304606F0B5F92378C9
:10777000002B9ED101232B709BE7F8BD2820002011
:1077800024160020FC150020C0080020598C000899
:1077900024200020A215002073150020751500205C
:1077A0007415002071150020B11500202C20002038
:1077B0006816002072150020FC04002000ED00E097
:1077C0000400FA05A015002008B5094B186006F062
:1077D000A5FB002006F0EEFB064805F01FFE06F0B4
:1077E000B5FB06F0D3FBBDE8084007F093BC00BF33
:1077F0001C030020A0860100074B1B68052B08D145
:10780000064B1A7A012A04D1987A1B7BC01AC0B29F
:1078100070470020704700BF6C160020FC04002059
:107820000D4B10B51B68052B13D10C4C237A012B83
:107830000FD16289A389D31A012B04D1002303201D
:10784000237207F0BEFDA3895A1CA2811C44A07BB1
:1078500010BD4FF0FF3010BD6C160020FC0400205E
:1078600008B50C4B1B68052B12D10B4B1A6D9918E0
:107870000132B2F5807F08BF002281F854001A65FA
:1078800006F01AFA20B16420BDE8084005F0C6BD34
:1078900008BD00BF6C160020FC040020F8B5234B87
:1078A00093F85421012A3FD0D3F85821196DB2F52D
:1078B000807F04BF0022C3F85821D3F858411B4AE7
:1078C0008C4203D1002382F85431F8BD8CBFC4F53B
:1078D0008071C4EB0101C2F85C11D3F85C61134DF7
:1078E000402EA2B207D94034403EC5F85841C5F8F1
:1078F0005C61402706E034440021B7B2C5F8584126
:10790000C5F85C110A4801241044C0213A4683F8A6
:10791000544107F0D1FC2046394607F0D5FD2046FA
:10792000BDE8F84007F03ABDF8BD00BFFC040020F8
:1079300050050020094B10B593E8140008331B686C
:10794000D0180AD006490822FFF790FD20460549C5
:107950000422BDE81040FFF789BD10BDE8F7FF1F06
:10796000CB020020DB02002013B5084C002100915F
:107970000A460B46204601F05DFE0549054A2046B1
:1079800002B0BDE810400DF055B900BF5C06002004
:107990001D7100086406002038B504460D46AC424F
:1079A00003D254F8043B9847F9E738BD08B50748B7
:1079B0000749FFF7F1FF07480749FFF7EDFFBDE86B
:1079C000084006480649FFF7E7BF00BF40BA010874
:1079D00040BA010840BA0108ACBA0108ACBA0108C3
:1079E000ACBA01080EF034BA0EF03ABA07B5064B3D
:1079F000052000936E21054A002306F0A1FE072012
:107A000006F0ECFEFEE700BF30B00108D0820108AE
:107A100007B50C4A1368184410600B4A90420CD901
:107A20000A4B052000938B21094A002306F088FEAB
:107A3000082006F0D3FE0EF0EDF9184603B05DF80D
:107A400004FB00BF68000020004800203CB0010893
:107A5000E08201084FF0FF307047012070470000BE
:107A600007B5064B0520009340F21511044A002388
:107A700006F066FE0C2006F0B1FEFEE748B00108F5
:107A8000F1820108136870B50361536804464361CD
:107A90000E200E46FFF7A6FF3146054600F0ACF873
:107AA0002560204670BD000010B5847C86B0027C45
:107AB000437C0094C47C0194047D0294447D03942F
:107AC000847D0494C07D0590084602490EF07CFB3D
:107AD00006B010BD38AF01081A30704770B50546C2
:107AE000044655F8100B00F013F92068294600F001
:107AF000C5F920684421002200F08EF90C26206888
:107B000000F0ACF968B1206800F002F9294620685D
:107B100000F0B4F92068BE21002200F07DF90025B4
:107B200005E0642001F000FB013EE8D1EBE72068AE
:107B300000F094F963190135092D1871F7D12379F3
:107B4000607943EA0020237E6BB1E37A00B2102B08
:107B500008BFA37A4FEAC00002BFC3F10C0320F0B4
:107B60000F00C0180FE0237A13F0600302D120F059
:107B7000070008E0202B02D120F0030003E0402B97
:107B800002D120F0010080B200B2FEF745F84FF0BC
:107B90007651FEF795F870BD08B50846FDF71CFC58
:107BA00005A3D3E90023FDF76BFC0022044BFDF78E
:107BB000B5FAFDF727FF08BDCDCCCCCCCCCCFC3F33
:107BC00000004040AFF3008013B5084C0021009145
:107BD0000A460B46204601F02DFD0549054A204680
:107BE00002B0BDE810400DF025B800BF68060020C7
:107BF0001D7100086406002038B504460D4608468D
:107C0000012101F007FA2580204638BD038818219C
:107C10004B43034AD118D3588A885A61704700BF32
:107C200074000020F7B5028818214A43124B05461C
:107C300099189C58114A8F8894421E4608BF042008
:107C400003D00F4B9C4203D10820012108F05AF8C1
:107C500010238DF8073003238DF806302B88182267
:107C600002FB03660023ADF804702046B37301A93C
:107C700007F07CFE03B0F0BD740000200008014056
:107C8000000C0140038818214B43034AD118D358F4
:107C90008A881A61704700BF74000020F7B5028817
:107CA00018214A43114B054699189C58104A8F8851
:107CB00094421E4608BF042003D00E4B9C4203D1C1
:107CC0000820012108F01EF804238DF807302B88C6
:107CD000182202FB03660123ADF804702046B3733B
:107CE00001A907F043FE03B0F0BD00BF74000020FF
:107CF00000080140000C0140038818214B43034A4F
:107D0000D118D058898807F07FBE00BF74000020CA
:107D100038B5044601F026FC2046FFF7BFFF01F00E
:107D200037FC7D25013D15F0FF052AD0022001F02A
:107D300041FA2046FFF7E0FF0028F3D001F012FCE3
:107D40002046FFF763FF2046FFF76CFF01F020FCA1
:107D50004FF4F07001F02EFA01F004FC2046FFF71A
:107D60009DFF462001F026FA2046FFF7C5FFD0F11F
:107D7000010538BF002501F00BFC4FF4CD7001F078
:107D800019FA284638BDCB0710B5044611D501F0C5
:107D9000E9FB2046FFF73AFF2046FFF743FF0A20A2
:107DA00001F008FA2046FFF76DFF01F0F1FB3720E4
:107DB00010E001F0D7FB2046FFF728FF2046FFF731
:107DC00031FF412001F0F6F92046FFF75BFF01F09B
:107DD000DFFB0520BDE8104001F0ECB910B504460A
:107DE00001F0C0FB2046FFF71DFF2046FFF70EFF06
:107DF000032001F0DFF92046FFF750FF0A2001F0D1
:107E0000D9F92046FFF778FF044601F0C1FB352081
:107E100001F0D0F9204610BD2DE9F0410446884616
:107E200017460825012616EA080F0CBF002101217C
:107E30002046FFF7A8FF7600013DF6B2F3D15FB907
:107E400001F090FB2046FFF729FF2046FFF7DEFEFA
:107E5000BDE8F04101F09CBBBDE8F081F8B50746F4
:107E60000825002401263846FFF7B8FF00B1344347
:107E70007600013DF6B2F6D12046F8BD70B500227D
:107E80000D4655210646FFF7C7FF0024295D304601
:107E900000220134FFF7C0FF082CF7D170BD2DE997
:107EA000F047057B04468946002D59D1FFF730FF86
:107EB00020B9A0722073E072BDE8F0872A46204600
:107EC000F021FFF7A9FF0126A846AA46354620461D
:107ED000FFF784FF07462046FFF780FF012F02D1FE
:107EE000012815D132E0874204EB080318D1A27AA9
:107EF000954205D29A7816420CBF0027012702E06E
:107F000014BF002701271FB9082D08D8E57206E025
:107F100004EB08039A78012732439A7004E0AA46DA
:107F20009A7822EA06029A70204639467600FFF7D0
:107F30002AFF013516F0FF06EDB204D108F1010861
:107F40005FFA88F80126B8F1070FC0D9402D07D98C
:107F500084F80AA0BAF1000F10D1012323730DE0B9
:107F60000020A0722073E0720023E218927809F8D2
:107F700003200133082BF8D1BDE8F087A378002B4C
:107F8000EED00120F0E7000013B5084C002100916D
:107F90000A460B46204601F04DFB0549054A20469E
:107FA00002B0BDE810400CF045BE00BF70060020D6
:107FB0001D7100086406002070B50A4D04462B6848
:107FC00033B90120FFF70EFD064600F08BFB2E6053
:107FD0002B682046E36001232372034B6360236018
:107FE00070BD00BF741600200000C8C20000000071
:107FF0007FB50226009604464021C068E52203AB07
:1080000000F098FB012821D09DF80D309DF80C0060
:10801000012543EA00202572FDF7CCF90022224B0E
:10802000FDF72EFA0022214BFDF72AFA0022204B01
:10803000FDF772F8FDF7E6FC009620604021E0684D
:10804000E32203AB00F076FBA84205D1194B0020D8
:108050002072636023601AE09DF80D309DF80C00DB
:10806000257243EA0020FDF7A5F90BA3D3E900230D
:10807000FDF706FA00220D4BFDF702FA08A3D3E93B
:108080000023FDF749F8FDF7BDFC6060284604B009
:1080900070BD00BFAFF30080D7A3703D0AF7654005
:1080A000CDCCCCCCCC6C474000405F400000F03ED3
:1080B000000018400000C8C2006870474068704760
:1080C00008B500680149FDF7F3FC08BD0040B54460
:1080D00008B54068FDF780F903A3D3E90023FDF755
:1080E0001DF8FDF78FFC08BDCDCCCCCCCCCCEC3F43
:1080F0007FB5012604AC382304F8013D00960546FF
:10810000234660212622806800F0F2FA9DF80F30A5
:10811000009643F002038DF80F30A86860212622F4
:10812000234600F0E5FA04B070BD7FB5382304ACF7
:10813000012504F8013D009506466021806826224D
:10814000234600F0D5FAA84201D100200FE0072312
:108150008DF80F300095B06860211322234600F09F
:10816000C7FA0128F1D03046FFF7C2FF284604B015
:1081700070BD000070B5094D04462B6833B901206D
:10818000FFF730FC064600F0ADFA2E602B68204663
:10819000A360FFF7CAFF204670BD00BF7416002021
:1081A0002DE9F041002386B006468DF80F30C82433
:1081B00001270DF10F030097B0686021062200F03F
:1081C000B9FA9DF80F3013F0060F0AD10A20013CCE
:1081D00000F0AAFF14F0FF04EAD13046FFF7A5FF34
:1081E00059E003230093B06860213A4605AB00F0E4
:1081F000A1FA012804D13046FFF77AFF00244AE0B3
:1082000002230093B0686021042204AB00F092FACC
:108210000128F0D09DF81000FDF7FAFCFDF7DCF81E
:1082200004469DF811000D460009FDF7C3F8002231
:108230001B4BFDF725F902460B4620462946FCF765
:108240006DFFFDF7DFFB70609DF815009DF8148051
:10825000000240EA084040EA08008009FDF7D8FC27
:10826000FDF7BAF80446C8F301100D46FDF7D4FC3B
:10827000FDF7B2F800220B4BFDF702F902460B4660
:1082800020462946FCF74AFFFDF7BCFB306030462C
:10829000FFF72EFF3C46204606B0BDE8F08100BF48
:1082A0000000B03F0000D03F13B5084C0021009102
:1082B0000A460B46204601F0BDF90549054A20460D
:1082C00002B0BDE810400CF0B5BC00BF780600203D
:1082D0001D710008640600201FB5022300930A46A2
:1082E00004467721406A03AB00F024FA012802D14A
:1082F0000020207005E09DF80C009DF80D3043EA49
:10830000002004B010BD022310B5AA21037004465A
:10831000FFF7E2FFAC2160802046FFF7DDFFAE21D2
:10832000A0802046FFF7D8FFB021E0802046FFF76D
:10833000D3FFB22120812046FFF7CEFFB421608118
:108340002046FFF7C9FFB621A0812046FFF7C4FFF2
:10835000B821E0812046FFF7BFFFBA2120822046E6
:10836000FFF7BAFFBC2160822046FFF7B5FFBE21B0
:10837000A0822046FFF7B0FF2378E082022B04BFE3
:1083800001232370207810BD70B5094D04462B6879
:1083900033B90120FFF726FB064600F0A3F92E6053
:1083A0002B6820466362FFF7AEFF204670BD00BF1A
:1083B000741600201FB52E2204AB03F8042D0122F1
:1083C000009204467721406AF42200F091F90128D6
:1083D00002D1002323701BE0052000F0A5FE2046FB
:1083E000F621FFF779FF237893B1A389B4F916201A
:1083F000C01A63894343B4F91400DB13C0021A4462
:1084000090FBF2F01844A0610830C0F30F1001E0B7
:108410004FF69C7000B204B010BD00007FB5B423CD
:1084200004AD05F8043D0123009304467721406A1A
:10843000F4222B4600F05CF901280CD00E2000F04D
:1084400073FE03230093606A7721F6222B4600F027
:1084500071F9012804D1002323706FF0630047E015
:10846000A269B4F90E30A2F57A6202FB02F0B4F907
:10847000061005136B4351431B1403EB61310231AA
:108480002389891001F5004159439DF80D309DF86D
:108490000C501B0243EA05439DF80E50B4F91060DE
:1084A0002B43B4F90250B4F9044070436243D21232
:1084B00002EBE05000EB8500C0EB931343F2D402D3
:1084C00053434FEAD13155BF5B00B3FBF1F3B3FB2C
:1084D000F1F35B001812404340F6DE325043054A88
:1084E0005A43121402EB204000F6CF6003EB201039
:1084F00004B070BD43E3FFFF38B5037804462BB1E9
:108500002046FFF757FF2578CDB109E0406A00F01B
:1085100033F92046FFF7F7FE05460028F0D122E0A8
:10852000FCF748FF12A3D3E90023FCF7A9FFFDF7EE
:1085300069FAE0612046FFF771FF25781DB9104BFD
:10854000E36123620FE0FDF767FBFCF745FF0AA339
:10855000D3E90023FDF7BEF800220A4BFDF7BAF875
:10856000FDF750FA2062284638BD00BFAFF3008007
:108570009A9999999999B93FC1E8393C0A77EF3F9F
:108580000000C8C200005940C0697047006A7047C7
:1085900013B5084C002100910A460B46204601F015
:1085A00049F80549054A204602B0BDE810400CF0E4
:1085B00041BB00BF880600201D7100086406002032
:1085C00070B5094D04462B6833B90120FFF70AFA4C
:1085D000064600F087F82E602B682046A360012332
:1085E00023710023236070BD74160020006870475B
:1085F000F0B5037985B0064613B9806800F0BCF881
:1086000001240094B0684B2103220DF10F0300F008
:1086100091F8A0420CD034710094B0684B21042230
:108620000DF10F039DF80F5000F084F8012802D1DE
:108630000020307127E034712809FCF7ABFE0246B8
:108640000B4600204FF080419DF80F700CF020FB8E
:1086500047EA0517FFB2044638460D46FCF7AAFE66
:1086600002460B4620462946FCF70AFFFDF7CAF9E9
:10867000FCF7B2FE06A3D3E90023FCF701FFFDF7E8
:10868000C1F93060307905B0F0BD00BFAFF30080B4
:108690000AD7A3703D0AA73F70B510200DF0D8FB94
:1086A0000E4B0F4D03604BF6FF73C3804FF4806396
:1086B000002643814FF480430446868006818381EF
:1086C0002846FDF759FF0123AE70EB706E61EC6137
:1086D0002846BDE87040FDF7A7BE00BFA086010098
:1086E0002800002010B50446FFF7D6FF204610BD35
:1086F0001FB50F4C00939DF8183049000193204698
:1087000000AB029103926360FEF770F938B9237BE6
:10871000012B06D0064B1B7B102BF8D101E001206A
:1087200004E0207BB0F110035842584104B010BD62
:10873000280000201FB50F4C00939DF81830490009
:108740000193204600AB02910392A360FEF7A4F9C7
:1087500038B9237B012B06D0064B1B7B102BF8D19D
:1087600001E0012004E0207BB0F1100358425841A1
:1087700004B010BD2800002010B5044C2046FDF7C1
:10878000C7FE2046BDE81040FDF74EBE2800002081
:10879000014B1868704700BF90060020064B024648
:1087A000582000FB013101F1080303CB1060516038
:1087B00018689060704700BF90060020014BD3F806
:1087C0006401704790060020064B0246142000FB0F
:1087D000013101F5B67303CB1060516018689060E9
:1087E000704700BF9006002038B50546064C28B1FA
:1087F00005F004F8012384F8303238BD04F0ACFFF2
:1088000084F8305238BD00BF900600200E4B2DE991
:10881000F041D3F8647180460024BC4211DA14257B
:108820006543094E414606F5B67028440C220DF00A
:108830000CFD20B93544D5F86801BDE8F08101345C
:10884000EBE70020BDE8F08190060020044B0122F8
:108850001A70044B00224FF4C0201A6005F02EBCA1
:108860007315002000050020034A00231370034AFB
:10887000136005F081BC00BF7315002000050020C7
:10888000024B00221A6005F041BC00BF0005002029
:108890002DE9F04788B0804668460D4601F00EF895
:1088A0001E4B0024D3F800A054452DDA55B35826AA
:1088B00066431A4F414607F1080030440C2207F185
:1088C00004090DF0C2FCE8B928460DF0B6FC06F12B
:1088D0001003402834BF02464022294609EB03001A
:1088E0000DF0E3FA3E44012386F85830694604A8A7
:1088F000746801F005F804A8A047044604A800F035
:108900009BFF03E00134CFE74FF0FF34684600F0EF
:1089100093FF204608B0BDE8F08700BF9006002016
:1089200037B5184D286803F031F8411E4C424C41D0
:10893000BCB1154B154A00932B680220019340F2FD
:108940003111002305F0FCFE2B685A1C09D0104A97
:1089500002208DE80C0040F235110C4A002305F08E
:10896000EFFE2B68013309D10A4B0220009340F23D
:108970003911064A002305F0E3FE0124204603B026
:1089800030BD00BF6C0000207CB001080C830108E2
:10899000BDB00108EFB0010837B5104B05461B7894
:1089A0000C4633B90E4B1B781BB9FFF7B9FF0346D2
:1089B00058B10C4B022000934FF4BC710A4A0023BB
:1089C00005F0BEFE4FF0FF3005E0084A294610686A
:1089D000224603F0AFFF03B030BD00BFB01500204A
:1089E000B11500200DB10108258301086C0000209D
:1089F0002DE9F041354B86B01B7880460F46002BA1
:108A000055D1334B1B78002B51D1FFF789FF04461A
:108A100000284CD12F4E06A933688DF80C005A0956
:108A20008DF80D008DF80E008DF80F0001EB82021D
:108A3000012003F01F01884052F80C1C04940143EC
:108A400042F80C1C41F28832059204AA0092581C8C
:108A500003A92246234603F04FFE051E1ADD3368A4
:108A600006AA590902EB810151F80C5C03F01F02C0
:108A7000154115F0010025D01846414623463A46D7
:108A800003F0DAFE144B05468DE82800022040F280
:108A9000A31106E009D0114B02208DE8280040F216
:108AA000A9110F4A234605F04BFE28460AE00D4B5C
:108AB0000220009340F28911094A002305F040FE8C
:108AC0004FF0FF3006B0BDE8F08100BFB0150020C8
:108AD000B11500206C00002046B1010858B1010812
:108AE0004F8301080DB1010830B51F48ADF57B7DFE
:108AF00007F024FC002834D11C4B17A805931C4B0D
:108B000061AD06931B4B049007931B4B0EAC08936F
:108B10001A4B039509931A4B0A931A4B0B931A4B52
:108B20000C931A4B0D931A4B0E931A4B0F931A4B2F
:108B300010931A4B11931A4B12931A4B13931A4B0F
:108B400014931A4B15931A4B169305F05BFB2846AA
:108B500005F05EFB00940448164903AA05AB07F034
:108B6000F4FB0DF57B7D30BDC40800209989000819
:108B7000F18900084D8800086988000841E2000872
:108B800081880008E987000825910008E19900081C
:108B9000918700089D87000891880008BD8700081C
:108BA000C9870008B98F00080D8800081DE2000879
:108BB00031E20008E8F7FF1F014808F0FCBA00BFE7
:108BC000C408002030B502208DB00146112203F008
:108BD000D5FC051E28DB07A8144907F006FD022373
:108BE000ADF80C3016238DF80E3033238DF80F308E
:108BF000E0238DF8103000238DF8113001238DF81B
:108C00001230BB238DF81330032403AB00931023E1
:108C10000193284607A91322002303F095FE013C87
:108C2000F3D1284603F0DAFC0DB030BDE8F7FF1FA2
:108C300038B5084CFFF758FF204607F082FB204666
:108C400007F05DFF0546FFF7BDFF204607F0C6FEB3
:108C5000284638BDC408002038B5124CD4F8585BFB
:108C60002DB1D4F8583B013BC4F8583B38BD0E4AEF
:108C7000D4F85C3B02EB8303D86E04F045FDE7209B
:108C800004F096FD6423094AC4F8583BD4F85C3BD1
:108C9000526801339342C4F85C3BA8BFC4F85C5BE4
:108CA00038BD00BF900600200C8301086C00002036
:108CB0002DE9F041354B86B00093022000234FF49C
:108CC0001C71334A05F03CFD01210622022003F00D
:108CD00055FC304B06468DE84800022040F27221D8
:108CE0002B4A002305F02CFD002E4ADB35230225FC
:108CF00000248DF80B304FF4FA5008238DF80C3017
:108D00008DF80D308DF80E308DF80F30ADF808501D
:108D10008DF80A4001F070FA1F4B804600932846F8
:108D200023464FF422711A4A05F00AFD02A91022C7
:108D3000304603F0B3FC194B074640F28A21144A2F
:108D40008DE888002846234605F0FAFC404601F0ED
:108D500053FA134B4FF425710D4A009328462346CE
:108D600005F0EEFC304603F039FC0E4B0190009309
:108D7000284640F29621064A234605F0E1FC384693
:108D800001E04FF0FF3006B0BDE8F08168B10108A6
:108D9000948301086FB1010886B101088EB1010802
:108DA000A6B10108ACB1010837B5164B164D0093BA
:108DB0000220002340F2E621144A05F0C1FC2B6892
:108DC000002B1ADB124B40F2EF21104A00930220D5
:108DD000002305F0B5FC286803F000FC0D4B0446A9
:108DE0008DE818000220002340F2F121074A05F027
:108DF000A7FC4FF0FF332B6000E00024204603B0B7
:108E000030BD00BF36B401086C000020A883010803
:108E1000A6B10108B9B101082DE9F0414B4BA8B04A
:108E20004B4C0093236840F29F214A4A0193022051
:108E3000002305F085FCFFF7B7FF01210622022081
:108E400003F09CFB444B206040F2A621009301906C
:108E5000002302203F4A05F073FC2368A046002B44
:108E600064DB3E4D0223A5F8603B162385F8623B88
:108E700007A8332385F8633B05F090F9002302939C
:108E80009DF81C303BB1012B17D0354B03AE03F1DD
:108E90001004324602E0089B029313E018685968F8
:108EA000374603C70833A3423E46F7D10FCA08AC82
:108EB00007C424F8023B1B0C23700A24029B0BB945
:108EC000013C36D1029B0BB9264B0293029B4FF417
:108ED000FA501A0E85F8642B1A0C85F8652B1A0ABD
:108EE00085F8662B85F8673B01F086F91E4B054631
:108EF0000093022000234FF43771164A05F020FC3E
:108F00001A491022D8F8000003F0C8FB184B044699
:108F10008DE81800022040F2DE210E4A002305F001
:108F20000FFC284601F068F920460CE04FF0FF30B6
:108F300009E008A87E210DF09EF902AA81B208A8D6
:108F400003F072FBBAE728B0BDE8F081CAB10108AE
:108F50006C000020BF830108DEB1010890060020EC
:108F60000BB2010804E5D03686B10108F0110020EB
:108F7000F6B101080F4B2DE9F041D3F8647180463A
:108F80000024BC4211DA142565430A4E414606F519
:108F9000B67028440C220DF058F920B9354495F8E4
:108FA0007801BDE8F0810134EBE74FF0FF30BDE818
:108FB000F08100BF9006002008B5FFF7DBFF013805
:108FC000082804D8034B184490F8C70008BD0220B5
:108FD00008BD00BF0C83010837B50B4C002104F518
:108FE00037650B4600910A46284600F023FB2846C9
:108FF0000649074A0BF01EFE04F50D7003B0BDE8EC
:10900000304007F086B900BF900600201D710008AF
:109010006406002014282DE9F34104460E4677D853
:10902000FF2975D000F0D0FB20B1A4F10D039BB255
:10903000022B6DD900F06AFA08B1012C68D900F052
:1090400055FE20B1A4F112039BB2012B60D9182365
:109050006343314DEA18EF58304BB2F804809F4219
:1090600001D1042003E02E4B9F4203D108200121AF
:1090700006F048FEADF80480062E45D8DFE806F07D
:10908000040F171F27313C0010238DF807300323EE
:109090008DF80630182303FB0454002333E0042327
:1090A0008DF80730182303FB045401232BE04823D9
:1090B0008DF80730182303FB0454022323E02823F0
:1090C0008DF80730182303FB045403231BE01823F7
:1090D00003228DF8073003FB04548DF80620042387
:1090E00011E01C238DF8073003238DF80630182378
:1090F00003FB0454052306E000238DF807301823F2
:1091000003FB04540623A373384601A906F02EFC82
:1091100002B0BDE8F08100BF7400002000080140EB
:10912000000C014005F0C6B830B54FF47A7385B035
:109130001C4C0093236805460344236005F0BAF8ED
:10914000019006F031FD05F0B5F80290029A019BFE
:10915000D31A0393039B002B03DA019B029A134457
:109160000393039BAB421AD20F4B1B78002BE8D022
:109170000E4B1B78002BE4D1039A009B9A4203D23A
:109180002368B3F57A7FDCD3039B03F57A730093EE
:1091900001F0BEF8064B1B78002BF9D1D1E705B0E2
:1091A00030BD00BFAC150020FC150020B11500201B
:1091B0007315002004F032B913B5084C002100915A
:1091C0000A460B46204600F035FA0549054A204676
:1091D00002B0BDE810400BF02DBD00BF34120020DE
:1091E0001D7100086406002038B5184B05461C8820
:1091F00003F580631B88A4B29BB22BB94EF6EE62D6
:10920000A21A18BF012205E0F4B94EF6EE629B1ACD
:109210005A425A4192020E4B02F1006404F5804416
:1092200013449C420ED22268013209D1204606F036
:1092300081FB042809D1A01C294606F07BFB38BD20
:109240000434EEE7802038BDAB2038BD0040000874
:10925000FE43000808B5084806F04EFB04280AD172
:109260000548002106F066FB042804D1BDE808404B
:10927000024806F041BB08BD004000080044000859
:10928000104B10B51C8803F580631B88A4B29BB2F9
:109290001CB10BB1AB2010BD01240B4BA402234425
:1092A0000A4A224493420AD91A8892B2824204D1CD
:1092B00033F8023C00200B8010BD043BF0E7012096
:1092C00010BD00BF00400008FE4300080240000837
:1092D000F8B5444E06F0D0FA434D34884EF6EE61B0
:1092E000A4B22B888C429BB24FF6FF7210D09442EE
:1092F00002D0002C73D142E00BB930466CE08B42B7
:109300006DD1304606F0F8FA04286AD1284632E0DA
:109310004BBB1C461646354B354A1B8832F8145059
:109320009BB2AB4208BFA6B233B29C4203D1013418
:10933000642CF0D10FE02E4F284607F1C801FFF74B
:109340009FFF0128F3D02846B7F8C810FFF74CFF5D
:109350000428ECD0F8BD2348002106F0EBFA0428DD
:109360003FD1214838E0934239D1284606F0C4FA6B
:10937000042836D13046002106F0DCFAF8BD73B37C
:10938000934201D1284627E016461A4B184A1B88FB
:1093900032F814509BB2AB4208BFA6B233B29C4223
:1093A00003D10134642CF0D10FE0114F284607F1AE
:1093B000C801FFF765FF0128F3D02846B7F8C810A9
:1093C000FFF712FF0428ECD0F8BD0748002106F093
:1093D000B1FA042805D1034806F08EFAF8BDFFF76C
:1093E00039FFF8BD004000080044000806400008AE
:1093F0003C1200200644000810B50446FFF768FF41
:109400000023044A22F813300133642BF9D120469B
:1094100010BD00BF3C1200200148FFF7EDBF00BFA8
:1094200006130020024B18785B78C01A704700BF03
:1094300008130020064B5A781978914204D99918DC
:10944000013288785A7070474FF0FF30704700BF84
:1094500008130020054B5A781978914202D9134419
:10946000987870474FF0FF30704700BF0813002016
:1094700070470000014B0360704700BF288401085B
:1094800010B5034B04460360FEF7AEFA204610BD4C
:1094900028840108F8B5094B054693F82230164692
:1094A00053B10C468F18BC4206D02B6828469B68E7
:1094B00014F8011B9847F6E73046F8BD0813002062
:1094C00010B50C4B012293F822408CB193F8234045
:1094D0001F2C02D94260002010BD93F824001C18F4
:1094E00084F82510411CC9B283F8241083F8231096
:1094F000104610BD08130020002242604FF47A721B
:109500008260014A02607047E8830108014B93F8CA
:10951000590070470813002073B50E4C002104F168
:1095200064050D4E0B4600910A46284600F082F86D
:109530006C343246094928460BF07CFB2046FFF785
:10954000DBFF07492046324602B0BDE870400BF011
:1095500071BB00BF08130020640600201D710008C5
:1095600075940008094B4022C3F880208022C3F87C
:1095700080204FF40072C3F880204FF48062C3F85B
:1095800080204FF40002C3F88020704700E100E023
:10959000074B40221A6080221A604FF400721A6052
:1095A0004FF480621A604FF400021A60704700BFE7
:1095B00000E100E008B5034B53F8203003B19847B1
:1095C00008BD00BF8413002013B5084C0021009192
:1095D0000A460B46204600F02DF80549054A20466C
:1095E00002B0BDE810400BF025BB00BFC413002043
:1095F0001D710008640600202DE9F0410024074693
:109600000E4625463B1919790A22304600F0AAF881
:109610002E218046304600F076F801344044032C79
:109620000544EFD13046F9790A2200F09BF828442E
:10963000BDE8F08130B58371034D9DF80C300560B5
:1096400001714271C37130BD108401080548064B99
:1096500006490360064A0023037143718371C37195
:109660000BF0E8BACC130020108401081D7100082B
:109670006406002013B5084C002100910A460B46F1
:109680002046FFF7D7FF0549054A204602B0BDE84E
:1096900010400BF0CFBA00BFD41300201D7100089A
:1096A00064060020014B0360704700BF2884010856
:1096B000F8B506460C468F180025BC4207D0336823
:1096C00030469B6814F8011B98470544F5E7284687
:1096D000F8BD000010B5034B04460360FEF784F9A3
:1096E000204610BD2884010838B505460C460846BA
:1096F00041B10CF0A2FD2B680246DB6828462146EA
:10970000984738BD38BD08B503689B68984708BDC1
:1097100030B500238BB08DF82430012A98BF0A227F
:109720000DF12304B1FBF2F303FB1211CDB2092DAD
:1097300094BF30353735EDB2214604F801590BB1ED
:109740001946EFE7FFF7D0FF0BB030BD10B522B9D7
:109750000268C9B29268904710BDD2B2BDE810400D
:10976000FFF7D6BFFFF7F2BF13B5084C00210091F9
:109770000A460B462046FFF75DFF0549054A20468D
:1097800002B0BDE810400BF055BA00BFE413002052
:109790001D7100086406002013B5084C00210091DB
:1097A0000A460B462046FFF745FF0549054A204675
:1097B00002B0BDE810400BF03DBA00BFEC13002032
:1097C0001D71000864060020014B587D704700BFE2
:1097D000F41300207047000013B5084C00210091DD
:1097E0000A460B462046FFF725FF0549054A204655
:1097F00002B0BDE810400BF01DBA00BF0C140020F1
:109800001D7100086406002013B5084C002100916A
:109810000A460B462046FFF70DFF0549054A20463C
:1098200002B0BDE810400BF005BA00BF18140020CC
:109830001D7100086406002010B5044600680CF095
:109840000FFB204610BD10B50446006808B10CF0AF
:1098500007FB00232360A360636010BD38B5044696
:109860000D46006801310CF01FFC10B184E82100A6
:10987000012038BD036810B5044613B143688B421C
:1098800007D22046FFF7EAFF20B1A3680BB9226890
:109890001370012010BD70B50E46114604461546E2
:1098A000FFF7E8FF18B92046FFF7CDFF04E0A560F9
:1098B000206831460CF0B9FC204670BD38B5002355
:1098C000044603604360836003730D4639B1084664
:1098D0000CF0B3FC294602462046FFF7DCFF204689
:1098E00038BD884210B50B46044607D0096819B147
:1098F0009A68FFF7D0FF01E0FFF7A5FF204610BDF3
:1099000010B5002304460360436083600373FFF7D0
:10991000E8FF204610BD000013B5084C002100915F
:109920000A460B462046FFF785FE0549054A2046B4
:1099300002B0BDE810400BF07DB900BF201400203C
:109940001D7100086406002013B5084C0021009129
:109950000A460B462046FFF76DFE0549054A20469C
:1099600002B0BDE810400BF065B900BF281400201C
:109970001D7100086406002038B5184C94F92C308D
:109980005BB394F82D3043B306F01CFA94F82C2006
:1099900094F82D5051B2002995FBF1F106DD012913
:1099A0000BDC013A84F82C20002307E0013104DBB2
:1099B000013284F82C20022300E0012394F82D20AA
:1099C000013A84F82D20C41806F030FA204606F03B
:1099D0000DFABDE8384006F029BA38BD3014002031
:1099E00010B5044606F0EEF9001B00F17F02FE2AD6
:1099F00008D906F01BFA204606F0F8F9BDE8104039
:109A000006F014BA054A80EAE073A3EBE0735B004A
:109A100082F82C0082F82D3010BD00BF30140020D9
:109A200013B5084C002100910A460B462046FFF76B
:109A300001FE0549054A204602B0BDE810400BF082
:109A4000F9B800BF601400201D71000864060020F2
:109A500013B5084C002100910A460B462046FFF73B
:109A6000E9FD0549054A204602B0BDE810400BF06B
:109A7000E1B800BF6C1400201D71000864060020CE
:109A800013B5084C002100910A460B462046FFF70B
:109A9000D1FD0549054A204602B0BDE810400BF053
:109AA000C9B800BF741400201D71000864060020AE
:109AB000014B0360704700BF28840108426D836D2D
:109AC000D01A00F03F007047426D836D9A4203D078
:109AD000836D1844007D70474FF0FF307047426D32
:109AE000836D9A4209D0836D826D03441B7D0132E0
:109AF00002F03F028265184670474FF0FF30704712
:109B000010B5034B04460360FDF76EFF204610BD01
:109B10002884010810B50446D4F89C20D4F8A0305D
:109B20009A42F9D1237C13B90023237410BDD4F8D1
:109B3000A4304021186806F0C6FB0028F4D1F1E7F4
:109B4000D0F8A43070B504460E46186840F227716C
:109B500006F0BFFB28B9D4F89C20D4F8A0309A4274
:109B600015D1D4F89C50013505F03F05D4F8A0304C
:109B70009D42D4F8A43013D0EFF31082D20742D51F
:109B8000D4F89C10D4F8A020914209D13BE0D4F83D
:109B9000A43040F227711868012206F074FBE0E758
:109BA000186840F2277106F094FB0028DED0D4F844
:109BB000A4308021186806F086FB0028D6D0D4F89F
:109BC000A43040F227711868002206F05CFBD4F83C
:109BD000A4301868D4F8A0305A1C2344C4F8A0203C
:109BE00093F85C1006F067FBD4F8A03040F22771C0
:109BF00003F03F03C4F8A030D4F8A4300122186861
:109C000006F041FBB2E7D4F89C2040F227712244D1
:109C100082F85C60C4F89C500125186825742A46B7
:109C200006F031FB284670BD10B540F225510446C0
:109C3000006806F04EFB70B1206806F040FBE36957
:109C4000C0B21A6C596C013202F03F028A4202D053
:109C5000196C58541A64206840F2277106F039FBD9
:109C6000B8B1A3692068196C5A6C914206D1BDE85D
:109C7000104040F22771002206F005BB5A6C511CBF
:109C80005964995C06F017FBA3695A6C02F03F0215
:109C90005A6410BDF8B54FF47A7383600C4B0446D8
:109CA000002503604560C0F8A41004F15C07482655
:109CB00014308F613246C86129460CF01AF93846D3
:109CC000294632460CF015F925742046F8BD00BF30
:109CD000408401080148FFF7A7BF00BF70020020C1
:109CE0000148FFF7A1BF00BF90020020014B187C84
:109CF000704700BF7C14002073B50E4C002104F1A6
:109D000014050D4E0B4600910A462846FFF792FCBB
:109D10001C343246284609490AF08CFF204608497F
:109D2000FFF7B8FF07492046324602B0BDE8704051
:109D30000AF080BF7C140020640600201D7100081A
:109D400070020020B19A000870474FF0FF30704752
:109D5000014B0360704700BF2884010810B5034B16
:109D600004460360FDF740FE204610BD288401082C
:109D7000FDF756BD08B5FDF73FFD08BD08B508461F
:109D8000FDF76EFD012008BD002242604FF47A729B
:109D90008260014A02607047688401080846FDF746
:109DA00013BD000037B50D4C00210D4D0B46009141
:109DB0000A462046FFF73EFC2A460A492046083458
:109DC0000AF038FF2046FFF7DFFF074920462A4602
:109DD00003B0BDE830400AF02DBF00BF40150020A1
:109DE000640600201D710008519D000870470000A6
:109DF00037B50B4C00210B4D0B4600910A4620460F
:109E0000FFF718FC2A46204607490AF013FF0749C6
:109E100004F108002A4603B0BDE830400AF00ABF4A
:109E200058150020640600201D710008ED9D0008F3
:109E300000230360184670470023036018467047EC
:109E400000230360184670472DE9F0410B7890B06D
:109E500004460D4616462BB1032A54D8DFE802F01B
:109E600002113C3C20460CF0E8F901230246002098
:109E700000930190029003900490059021460346C0
:109E80003DE008460CF0D9F900264FEA50088DF85D
:109E90001E60464505F1020508AF0FD015F8023CDB
:109EA00007A88DF81C3015F8013C002110228DF810
:109EB0001D300CF079FAB8550136EAE720460CF06F
:109EC000BCF90023024601208DE841000293039370
:109ED00004970593214612E00CF0AFF90746284697
:109EE0000CF0ABF9012118221E234FF0020E8DE871
:109EF0000E4005900495304621463A46002302F074
:109F00005BFE044B1870034B01225A7010B0BDE881
:109F1000F08100BF64150020034610B548F210041C
:109F2000A34208464CD00DDC48F20102934224D0F3
:109F300048F2020293422AD0992B64D1324B01227B
:109F40009A7410BD48F28004A3420FD0B3F5084FB5
:109F500049D048F24000834255D12B4C04F1140003
:109F60000BF0A3FFA36A0133A36210BD264B0122AD
:109F70009A70DA7000221A7110BD234C01236371AC
:109F8000FFF7D0F800F5EA403030A06010BD1E4C5D
:109F9000637963B1FFF7C6F800F5EA403030A0609E
:109FA0004FF47F4003F088FBE72003F001FC00231F
:109FB000637123736373A373E3732374637410BDBA
:109FC0000A7D114B62B99A604FF47F4001221A73E7
:109FD0001A7403F071FBBDE81040E72003F0E8BB02
:109FE00000221A7310BD002101F043F8012104463C
:109FF00001F086F8054B1B689C4204D1024B0022FD
:10A00000DA739A735A7310BD641500206C00002037
:10A010001FB54FF461504FF461610A2200238DE8AF
:10A020000F00064B44F620621A60684601A902AA96
:10A0300003AB01F0B1FD05B05DF804FB2016002074
:10A040001FB50023009301930293039301A869466F
:10A0500002AA03AB01F066FD05B05DF804FB000049
:10A0600070B500210A4C0E2001F068FE1025102169
:10A070000E2001F063FE2A46204600210BF039FF36
:10A08000294623460E200022BDE8704001F00ABE9A
:10A090009015002030B5524D00249FB0FF20AC70C9
:10A0A000EC706C706C712C73AC746C73AC73EC737F
:10A0B0002C7403F001FBE72003F07AFB21462246D3
:10A0C000204602F055FD2B46012103F82D4F0E20AE
:10A0D0000A4601F0E7FD6B79012B05D1642003F0FE
:10A0E00095F901F049F9F6E710210C2001F026FE60
:10A0F0003C4802F0E9F93C4802F0AEFE012002F0D3
:10A100008FFE6846394900F037FEAB786A78344CE8
:10A110001A4317D194F83C30002B57D0FF2002F09F
:10A1200031FE002852D11A24013C06D0E72003F06A
:10A130006DFB322003F06AF9F6E7FFF791FF85F82F
:10A140003C40E2E7E72003F033FB04F12C030E2050
:10A150000121002201F078FDA37813B102F09CFEEA
:10A1600020702B780121013385F82C300022204B00
:10A170000E2001F097FD002001240146012202F08B
:10A18000F7FC214622461B4B0E2085F82D4001F09E
:10A1900089FD02F071FC642003F038F9002002F020
:10A1A00035FC85F83D404FF47F4000242C7403F0CB
:10A1B00083FAE72003F0FCFA48F2042002F0FEFDE7
:10A1C000FFF726FF85F83E401FB030BDE72003F0C3
:10A1D0001DFBFA2003F01AF9684600F029FE94E707
:10A1E0006415002088840108B0020020499E000800
:10A1F0009015002091150020024B1A681860104637
:10A20000704700BF201600207FB5364C0025206423
:10A2100003F0B4FD03F0F4FC334B344A0093344BA9
:10A2200034490193344B35480293354B0393354BF6
:10A2300002F0D4FB642003F0E9F8002002F0E6FB12
:10A24000012348F2042084F83D30257402F0B6FD65
:10A250002D4B1A881E46012A31D00E2010212A4685
:10A2600004F12C0301F0F0FC102828D123791D4DB6
:10A27000ABB995F82C301BB9012385F83E300EE0C0
:10A2800095F82D0058B90146012202F071FC012118
:10A290002B4603F82D1F0E200A4601F003FD2379FB
:10A2A000BBB9104B93F83E309BB1184801F02CFD20
:10A2B000FFF7C6FE04B0BDE87040FFF7A9BEFF205F
:10A2C00002F060FDFFF7CCFE0023338003F0A8FE10
:10A2D000CCE74FF47F4003F0EFF9E72003F068FA92
:10A2E000E3E700BF64150020B9DC0008399E0008D0
:10A2F000CDDC0008319E000839DD0008199F0008F8
:10A3000061DD0008419E0008FE030020A815002022
:10A310002DE9F3419F4C05F047FC0023A36494F81A
:10A320004C3053B994F84D303BB9A368002B38D06A
:10A33000FEF7F8FEA368984233D394F83D30954D6C
:10A34000002B49D0944B00264FF40471934A02200D
:10A350000093002304F0F4F901276E71AE602E73B0
:10A360002E6585F84C6085F83D606E73AE73EE73B4
:10A370006E7402F081FB6FF07F402F7403F09CF944
:10A38000E72003F015FA642003F040F895F83E301A
:10A3900013B3304602F03AFB85F83D70FFF77AFEC2
:10A3A0001AE094F83D307B4DB3B92B792BB9FEF709
:10A3B000B9FE00F5EA403030A860002002F026FB2C
:10A3C000012384F83D304FF47F400023237403F0D1
:10A3D00073F9E72003F0ECF994F83E306D4E13B1B9
:10A3E000FFF758FE05E033791BB1337B03F0FF051F
:10A3F000FBB1E278674B012A13D11A7B012A10D1F5
:10A400005B79012B0DD1032565480BF016FF013D4B
:10A4100082B26349012002F0A3FA15F0FF05F3D1DF
:10A42000E570237B5B4DE3B195F84D30002B75D083
:10A4300017E029462A462846B56002F099FB59489C
:10A440000BF0FBFE584F804638460BF0F6FE0097A7
:10A450000190791F032042462B4602F023FB357101
:10A46000C7E794F8573023B1504800213A220BF047
:10A4700040FD94F88E20474B32B95A7B002A59D1BF
:10A480009B7B002B56D1D3E01A7BFAB193F84D2079
:10A49000E2B95A7B002A5DD018E02B4603F82F2F33
:10A4A0000E200121032201F0FDFB00264FF6FF7074
:10A4B000267403F001F9E72003F07AF9FEF7ACFC0B
:10A4C000B042344D76DB01232E656B73637B314DD7
:10A4D000002B00F0AD80AB7BBBB9FEF7A9FB0028D9
:10A4E00011D002DA4FF47F0007E0012801D1304893
:10A4F00003E0022803D14FF0FF1003F0DDF8E7205E
:10A5000003F056F901E00123AB73FEF755FB002879
:10A5100040F08E80E073A073607389E095F8573047
:10A52000002BA6D1642002F071FF05F1540001F068
:10A5300079FB9EE7FEF738FC00234FF47F40E3737E
:10A54000A373637303F0B8F8E72002B0BDE8F041ED
:10A5500003F02EB95B7C002BA7D04FF47F0003F0F3
:10A56000ABF8637C0B4D03F0FF02002B95D0E72086
:10A5700003F01EF94FF4FA7002F048FFE72003F0F1
:10A5800025F94FF4FA7002F041FF6B7C013BDBB21E
:10A590006B74E6E7641500201BB20108998401087A
:10A5A000B3020020BA020020BF020020B81500202C
:10A5B0000060FF0095F84C2002F0FF03002A37D11D
:10A5C0002A6D0132022A2A650BD1012185F84C102F
:10A5D000194904208DE8060040F2A321174A04F02F
:10A5E000AFF8FEF765FB002814DA236D0133022B68
:10A5F00023650DD1124A012182F84C100E4A042025
:10A600008DE80C004FF42B710C4A002304F098F8ED
:10A61000022300E003236374637C0E2084F82F3050
:10A620000121084B032201F03DFB002363734DE73A
:10A6300002B0BDE8F08100BF2DB201089984010885
:10A64000641500209315002013B5084C00210091DB
:10A650000A460B462046FEF7EDFF0549054A20460F
:10A6600002B0BDE810400AF0E5BA00BFF4150020C2
:10A670001D710008640600207047000007B5064BF6
:10A68000052000935821054A002304F059F80120C1
:10A6900004F0A4F8FEE700BF60B20108B08401082E
:10A6A00007B5064B052000936821054A002304F0F6
:10A6B00047F8032004F092F8FEE700BF6AB20108F1
:10A6C000C984010807B5064B052000937821054A87
:10A6D000002304F035F8042004F080F8FEE700BF02
:10A6E00074B20108E284010807B5064B0520009307
:10A6F0008821054A002304F023F8052004F06EF8B1
:10A70000FEE700BF7DB20108FA8401087047704778
:10A71000704708B503F0C6FDBDE80840FCF788BFE8
:10A7200008B5024B0BB1AFF3008008BD000000007C
:10A7300008B5024B0BB1FFF7D3FA08BDE19C000846
:10A7400008B5024B0BB1FFF7C5FA08BDD59C000850
:10A7500008B5024B0BB1FFF73DF808BDD5970008CF
:10A7600008B5012005F074F838B1012005F07EF835
:10A77000024B13B10020FEF71DFF08BDB595000880
:10A7800008B5022005F064F838B1022005F06EF833
:10A79000024B13B10120FEF70DFF08BDB59500086F
:10A7A00008B5042005F054F878B1042005F05EF8EF
:10A7B0000020064B0146188003F0B0F8BDE80840C1
:10A7C00003481021012205F016BD08BD40160020E7
:10A7D000002C014008B5082005F03AF838B10820EF
:10A7E00005F044F8024B13B10320FEF7E3FE08BD69
:10A7F000B595000808B5102005F02AF838B11020EA
:10A8000005F034F8024B13B10420FEF7D3FE08BD67
:10A81000B595000808B5202005F01AF838B12020B9
:10A8200005F024F80E4B13B10520FEF7C3FE4020BF
:10A8300005F00EF838B1402005F018F8084B13B1B8
:10A840000620FEF7B7FE802005F002F838B1802020
:10A8500005F00CF8024B13B10720FEF7ABFE08BD64
:10A86000B595000808B54FF4005004F0F1FF40B171
:10A870004FF4005004F0FAFF174B13B10D20FEF710
:10A8800099FE4FF4804004F0E3FF40B14FF4804064
:10A8900004F0ECFF104B13B10E20FEF78BFE4FF4CB
:10A8A000004004F0D5FF40B14FF4004004F0DEFF5B
:10A8B000094B13B10F20FEF77DFE4FF4006004F04A
:10A8C000C7FF38B14FF4006004F0D0FFBDE8084086
:10A8D00002F026BD08BD00BFB595000808B51048B8
:10A8E000102105F0C1FCC8B10D48102105F0C7FCCE
:10A8F000002003F0D9F830B90A4B1A8892B20A3214
:10A9000092B21A8008BD06481021002205F073FC9F
:10A91000BDE808400020012103F000B808BD00BFD9
:10A92000002C01404016002008B5024B1B6803B103
:10A93000984708BD0016002008B5024B5B6803B1BC
:10A94000984708BD0016002008B5012005F084FADC
:10A9500050B1012005F090FA044B0BB1FFF70CF851
:10A96000BDE8084005F062BA08BD00BF799900084B
:10A9700008B5022005F070FAB0B10C4B00224FF47C
:10A9800000301A7004F072FF012005F037F910B1A1
:10A99000012005F03DF905F049FA022005F06CFAB6
:10A9A000BDE8084005F042BA08BD00BFB11500205F
:10A9B00002F02ABC00F062B838B514490B78012BBC
:10A9C00023D1134A13680BB90B7038BD114C402BBF
:10A9D000206881B205D94030403B2060136040259B
:10A9E00004E09DB203442360002313600A482A4612
:10A9F0000844C02104F060FC0120294604F064FDF5
:10AA0000BDE83840012004F0C9BC38BD5006002024
:10AA100058060020540600205005002008B5094BB8
:10AA200001221A70084B002203201A8004F07CFDDA
:10AA3000064B024618804FF488710548BDE808406F
:10AA400004F052BC04050020080500200605002083
:10AA50000A050020074B1B68052B09D1064B1A6815
:10AA6000511C052A196003D100221A60FCF716BF99
:10AA7000704700BF6C1600200C16002070B52B4DDF
:10AA80002B4C2B682B4E9BB223802288338813409B
:10AA9000990508D54FF6FF532B60A3780133DBB23D
:10AAA000A370FFF7D7FF2288338813401A0401D51B
:10AAB00004F04CFB2288338813405B0505D54FF624
:10AAC000FF332B601C4B5B689847228833881A4001
:10AAD000900444BF4DF6FF722A6022881340D904C7
