:020000040800F2
:105000000050002049B20008D1A80008D5A8000827
:10501000F9A800081DA9000841A900080000000027
:1050200000000000000000000000000065A900086A
:1050300067A900080000000069A900086BA9000822
:105040009DB200089DB200089DB20008A1AB000807
:105050009DB200089DB20008B9A90008D9A90008AE
:10506000F9A900082DAA00084DAA00089DB2000861
:105070009DB200089DB200089DB2000809AC00086E
:10508000F56300080164000879A900089DB20008D2
:105090000DAC00089DB200089DB200086DAA000882
:1050A0009DB200089DB200089DB2000835AB000813
:1050B00081AB000891AB00080D600008D9630008BF
:1050C000E56300089DB200089DB20008A9A9000888
:1050D0009DB2000889A9000899A900089DB200089E
:1050E000BDAA0008C9AB00089DB20008000000007E
:1050F00000000000000000000000000000000000B0
:0C51000000000000000000005FF808F153
:1051100081F0004102E000BF83F0004330B54FEA68
:1051200041044FEA430594EA050F08BF90EA020FD5
:105130001FBF54EA000C55EA020C7FEA645C7FEA68
:10514000655C00F0E2804FEA5454D4EB5555B8BF8B
:105150006D420CDD2C4480EA020281EA030382EAFC
:10516000000083EA010180EA020281EA0303362D8E
:1051700088BF30BD11F0004F4FEA01314FF4801C61
:105180004CEA113102D0404261EB410113F0004F73
:105190004FEA03334CEA133302D0524263EB43032A
:1051A00094EA050F00F0A780A4F10104D5F1200EC8
:1051B0000DDB02FA0EFC22FA05F2801841F1000123
:1051C00003FA0EF2801843FA05F359410EE0A5F1F7
:1051D00020050EF1200E012A03FA0EFC28BF4CF028
:1051E000020C43FA05F3C01851EBE37101F00045DE
:1051F00007D54FF0000EDCF1000C7EEB00006EEBEB
:105200000101B1F5801F1BD3B1F5001F0CD3490874
:105210005FEA30004FEA3C0C04F101044FEA4452CB
:1052200012F5800F80F09A80BCF1004F08BF5FEA52
:10523000500C50F1000041EB045141EA050130BD32
:105240005FEA4C0C404141EB010111F4801FA4F1D5
:105250000104E9D191F0000F04BF01460020B1FA2A
:1052600081F308BF2033A3F10B03B3F120020CDA62
:105270000C3208DD02F1140CC2F10C0201FA0CF040
:1052800021FA02F10CE002F11402D8BFC2F1200CA5
:1052900001FA02F120FA0CFCDCBF41EA0C0190405B
:1052A000E41AA2BF01EB0451294330BD6FEA0404A4
:1052B0001F3C1CDA0C340EDC04F11404C4F120028F
:1052C00020FA04F001FA02F340EA030021FA04F3A1
:1052D00045EA030130BDC4F10C04C4F1200220FAF8
:1052E00002F001FA04F340EA0300294630BD21FA36
:1052F00004F0294630BD94F0000F83F4801306BFFC
:1053000081F480110134013D4EE77FEA645C18BFEF
:105310007FEA655C29D094EA050F08BF90EA020F86
:1053200005D054EA000C04BF1946104630BD91EA7E
:10533000030F1EBF0021002030BD5FEA545C05D181
:105340004000494128BF41F0004130BD14F58004C0
:105350003CBF01F5801130BD01F0004545F0FE4134
:1053600041F470014FF0000030BD7FEA645C1ABF69
:10537000194610467FEA655C1CBF0B46024650EAA0
:10538000013406BF52EA033591EA030F41F40021CC
:1053900030BD00BF90F0000F04BF0021704730B552
:1053A0004FF4806404F132044FF000054FF0000127
:1053B00050E700BF90F0000F04BF0021704730B5E8
:1053C0004FF4806404F1320410F0004548BF4042BD
:1053D0004FF000013EE700BF42004FEAE2014FEA12
:1053E00031014FEA02701FBF12F07F4393F07F4FED
:1053F00081F06051704792F0000F14BF93F07F4F1F
:10540000704730B54FF4607401F0004521F0004161
:1054100020E700BF50EA010208BF704730B54FF0E7
:1054200000050AE050EA010208BF704730B511F0EC
:10543000004502D5404261EB41014FF4806404F124
:1054400032045FEA915C3FF4DCAE4FF003025FEAA6
:10545000DC0C18BF03325FEADC0C18BF033202EB2E
:10546000DC02C2F1200300FA03FC20FA02F001FA88
:1054700003FE40EA0E0021FA02F11444C1E600BF27
:1054800070B54FF0FF0C4CF4E06C1CEA11541DBFDA
:105490001CEA135594EA0C0F95EA0C0F00F0DEF8A5
:1054A0002C4481EA030621EA4C5123EA4C5350EA8A
:1054B000013518BF52EA033541F4801143F48013DB
:1054C00038D0A0FB02CE4FF00005E1FB02E506F06C
:1054D0000042E0FB03E54FF00006E1FB03569CF0C1
:1054E000000F18BF4EF0010EA4F1FF04B6F5007FC7
:1054F00064F5407404D25FEA4E0E6D4146EB060639
:1055000042EAC62141EA55514FEAC52040EA5E50C1
:105510004FEACE2EB4F1FD0C88BFBCF5E06F1ED86B
:10552000BEF1004F08BF5FEA500E50F1000041EBA2
:10553000045170BD06F0004646EA010140EA02004F
:1055400081EA0301B4EB5C04C2BFD4EB0C0541EA71
:10555000045170BD41F480114FF0000E013C00F386
:10556000AB8014F1360FDEBF002001F0004170BDAA
:10557000C4F10004203C35DA0C341BDC04F11404C3
:10558000C4F1200500FA05F320FA04F001FA05F24F
:1055900040EA020001F0004221F0004110EBD3701C
:1055A00021FA04F642EB06015EEA430E08BF20EA48
:1055B000D37070BDC4F10C04C4F1200500FA04F3EB
:1055C00020FA05F001FA04F240EA020001F000417D
:1055D00010EBD37041F100015EEA430E08BF20EAF0
:1055E000D37070BDC4F1200500FA05F24EEA020E38
:1055F00020FA04F301FA05F243EA020321FA04F067
:1056000001F0004121FA04F220EA020000EBD3701D
:105610005EEA430E08BF20EAD37070BD94F0000F1D
:105620000FD101F00046400041EB010111F4801F51
:1056300008BF013CF7D041EA060195F0000F18BF02
:10564000704703F00046520043EB030313F4801F3E
:1056500008BF013DF7D043EA0603704794EA0C0FF8
:105660000CEA135518BF95EA0C0F0CD050EA41060E
:1056700018BF52EA4306D1D181EA030101F000418B
:105680004FF0000070BD50EA410606BF10461946B3
:1056900052EA430619D094EA0C0F02D150EA0136BF
:1056A00013D195EA0C0F05D152EA03361CBF104600
:1056B00019460AD181EA030101F0004141F0FE419F
:1056C00041F470014FF0000070BD41F0FE4141F423
:1056D000780170BD70B54FF0FF0C4CF4E06C1CEA23
:1056E00011541DBF1CEA135594EA0C0F95EA0C0FD8
:1056F00000F0A7F8A4EB050481EA030E52EA033593
:105700004FEA013100F088804FEA03334FF08055B3
:1057100045EA131343EA12634FEA022245EA1115E0
:1057200045EA10654FEA00260EF000419D4208BF91
:10573000964244F1FD0404F5407402D25B084FEA3E
:105740003202B61A65EB03055B084FEA32024FF4EA
:1057500080104FF4002CB6EB020E75EB030E22BF47
:10576000B61A754640EA0C005B084FEA3202B6EB07
:10577000020E75EB030E22BFB61A754640EA5C00B6
:105780005B084FEA3202B6EB020E75EB030E22BF46
:10579000B61A754640EA9C005B084FEA3202B6EB47
:1057A000020E75EB030E22BFB61A754640EADC0006
:1057B00055EA060E18D04FEA051545EA16754FEA68
:1057C00006164FEAC30343EA52734FEAC2025FEA86
:1057D0001C1CC0D111F4801F0BD141EA00014FF015
:1057E00000004FF0004CB6E711F4801F04BF0143E6
:1057F0000020B4F1FD0C88BFBCF5E06F3FF6AFAE02
:10580000B5EB030C04BFB6EB020C5FEA500C50F191
:10581000000041EB045170BD0EF0004E4EEA113114
:1058200014EB5C04C2BFD4EB0C0541EA045170BD1B
:1058300041F480114FF0000E013C90E645EA060E5F
:105840008DE60CEA135594EA0C0F08BF95EA0C0F8D
:105850003FF43BAF94EA0C0F0AD150EA01347FF4D5
:1058600034AF95EA0C0F7FF425AF104619462CE7AC
:1058700095EA0C0F06D152EA03353FF4FDAE10460F
:10588000194622E750EA410618BF52EA43067FF460
:10589000C5AE50EA41047FF40DAF52EA43057FF4F0
:1058A000EBAE12E74FF0FF3C06E000BF4FF0010CFB
:1058B00002E000BF4FF0010C4DF804CD4FEA410C5F
:1058C0007FEA6C5C4FEA430C18BF7FEA6C5C1BD02C
:1058D00001B050EA410C0CBF52EA430C91EA030FAD
:1058E00002BF90EA020F0020704710F1000F91EA0A
:1058F000030F58BF994208BF90422CBFD8176FEAD8
:10590000E37040F0010070474FEA410C7FEA6C5CA5
:1059100002D150EA013C07D14FEA430C7FEA6C5CAC
:10592000D6D152EA033CD3D05DF8040B704700BFD8
:105930008446104662468C461946634600E000BF26
:1059400001B5FFF7B7FF002848BF10F1000F01BDF8
:105950004DF808EDFFF7F4FF0CBF012000205DF8C3
:1059600008FB00BF4DF808EDFFF7EAFF34BF012048
:1059700000205DF808FB00BF4DF808EDFFF7E0FFE1
:1059800094BF012000205DF808FB00BF4DF808ED32
:10599000FFF7CEFF94BF012000205DF808FB00BF99
:1059A0004DF808EDFFF7C4FF34BF012000205DF87B
:1059B00008FB00BF4FEA410212F5001215D211D5C3
:1059C0006FF47873B3EB625212D94FEAC12343F0FC
:1059D000004343EA505311F0004F23FA02F018BF7E
:1059E000404270474FF00000704750EA013005D147
:1059F00011F0004008BF6FF0004070474FF000000A
:105A0000704700BF4FEA4102B2F1E04324BFB3F553
:105A1000001CDCF1FE5C0DD901F0004C4FEAC00225
:105A20004CEA5070B2F1004F40EB830008BF20F009
:105A30000100704711F0804F21D113F13872BCBFC3
:105A400001F00040704741F480114FEA5252C2F118
:105A50001802C2F1200C10FA0CF320FA02F018BF61
:105A600040F001004FEAC1234FEAD32303FA0CFCB4
:105A700040EA0C0023FA02F34FEA4303CCE77FEA43
:105A8000625307D150EA01331EBF4FF0FE4040F48D
:105A90004000704701F0004040F0FE4040F400003C
:105AA000704700BF80F0004002E000BF81F000417D
:105AB00042001FBF5FEA410392EA030F7FEA226CB4
:105AC0007FEA236C6AD04FEA1262D2EB1363C1BF44
:105AD000D218414048404140B8BF5B42192B88BFB3
:105AE000704710F0004F40F4000020F07F4018BFD6
:105AF000404211F0004F41F4000121F07F4118BFF6
:105B0000494292EA030F3FD0A2F1010241FA03FC9D
:105B100010EB0C00C3F1200301FA03F100F0004385
:105B200002D5494260EB4000B0F5000F13D3B0F14D
:105B3000807F06D340084FEA310102F10102FE2ABC
:105B400051D2B1F1004F40EBC25008BF20F001002C
:105B500040EA03007047490040EB000010F4000FDA
:105B6000A2F10102EDD1B0FA80FCACF1080CB2EB6D
:105B70000C0200FA0CF0AABF00EBC25052421843CC
:105B8000BCBFD0401843704792F0000F81F4000171
:105B900006BF80F400000132013BB5E74FEA410344
:105BA0007FEA226C18BF7FEA236C21D092EA030FB0
:105BB00004D092F0000F08BF0846704790EA010F2A
:105BC0001CBF0020704712F07F4F04D1400028BF57
:105BD00040F00040704712F100723CBF00F5000039
:105BE000704700F0004343F0FE4040F4000070476F
:105BF0007FEA226216BF08467FEA2363014642021B
:105C000006BF5FEA412390EA010F40F4800070472D
:105C10004FF0000304E000BF10F0004348BF4042D3
:105C20005FEA000C08BF704743F0964301464FF00F
:105C300000001CE050EA010208BF70474FF000036B
:105C40000AE000BF50EA010208BF704711F00043AC
:105C500002D5404261EB41015FEA010C02BF84467C
:105C60000146002043F0B64308BFA3F18053A3F5DB
:105C70000003BCFA8CF2083AA3EBC25310DB01FA22
:105C800002FC634400FA02FCC2F12002BCF1004FA6
:105C900020FA02F243EB020008BF20F00100704737
:105CA00002F1200201FA02FCC2F1200250EA4C008B
:105CB00021FA02F243EB020008BF20EADC707047D1
:105CC0004FF0FF0C1CEAD0521EBF1CEAD15392EADF
:105CD0000C0F93EA0C0F6FD01A4480EA010C4002BB
:105CE00018BF5FEA41211ED04FF0006343EA501015
:105CF00043EA5111A0FB01310CF00040B1F5000F57
:105D00003EBF490041EAD3715B0040EA010062F105
:105D10007F02FD2A1DD8B3F1004F40EBC25008BFEF
:105D200020F00100704790F0000F0CF0004C08BF0D
:105D300049024CEA502040EA51207F3AC2BFD2F1DA
:105D4000FF0340EAC250704740F400004FF00003E8
:105D5000013A5DDC12F1190FDCBF00F00040704722
:105D6000C2F10002410021FA02F1C2F1200200FA60
:105D700002FC5FEA310040F1000053EA4C0308BF27
:105D800020EADC70704792F0000F00F0004C02BF78
:105D9000400010F4000F013AF9D040EA0C0093F0F3
:105DA000000F01F0004C02BF490011F4000F013B4D
:105DB000F9D041EA0C018FE70CEAD15392EA0C0FBB
:105DC00018BF93EA0C0F0AD030F0004C18BF31F026
:105DD000004CD8D180EA010000F00040704790F0FC
:105DE000000F17BF90F0004F084691F0000F91F0A0
:105DF000004F14D092EA0C0F01D142020FD193EA66
:105E00000C0F03D14B0218BF084608D180EA0100ED
:105E100000F0004040F0FE4040F40000704740F0C9
:105E2000FE4040F4400070474FF0FF0C1CEAD05297
:105E30001EBF1CEAD15392EA0C0F93EA0C0F69D0F3
:105E4000A2EB030280EA010C49024FEA402037D05E
:105E50004FF0805343EA111143EA10130CF0004055
:105E60008B4238BF5B0042F17D024FF4000C8B4245
:105E700024BF5B1A40EA0C00B3EB510F24BFA3EB25
:105E8000510340EA5C00B3EB910F24BFA3EB9103F5
:105E900040EA9C00B3EBD10F24BFA3EBD10340EA4F
:105EA000DC001B0118BF5FEA1C1CE0D1FD2A3FF695
:105EB00050AF8B4240EBC25008BF20F0010070474A
:105EC0000CF0004C4CEA50207F32C2BFD2F1FF03ED
:105ED00040EAC250704740F400004FF00003013A1E
:105EE00037E792F0000F00F0004C02BF400010F4C2
:105EF000000F013AF9D040EA0C0093F0000F01F0D6
:105F0000004C02BF490011F4000F013BF9D041EAF7
:105F10000C0195E70CEAD15392EA0C0F08D142022A
:105F20007FF47DAF93EA0C0F7FF470AF084676E7FD
:105F300093EA0C0F04D14B023FF44CAF08466EE7D6
:105F400030F0004C18BF31F0004CCAD130F00042A4
:105F50007FF45CAF31F000437FF43CAF5FE700BFFC
:105F600030B5012185B004200AF004F80124002591
:105F70001E2368468DF800308DF801508DF80240E0
:105F80008DF8034009F02CFCADF80A50ADF806502E
:105F90008DF80C500B4D0223ADF80430284645F621
:105FA000C05301A9ADF808300AF0DCF828462146B4
:105FB0000AF033FA2846214622460AF048FA05B08C
:105FC00030BD00BF0008004073B50F4D1E230024F4
:105FD000012601A88DF804308DF805408DF8066083
:105FE0008DF8074009F0FCFB2246284631460AF0AE
:105FF0002EFA284621460AF010FA0420214609F01C
:10600000B9FF02B070BD00BF0008004008B50748E6
:1060100001210AF055FA38B1044801210AF05BFA6F
:10602000BDE8084000F064BC08BD00BF00080040A7
:10603000084B10B553F820400121204609F0A6FF77
:106040002046002109F0A2FF20460121BDE81040B2
:1060500009F090BF58840108084B10B553F8204050
:106060000121204609F092FF2046002109F08EFF11
:1060700020460021BDE8104009F07CBF588401088B
:106080002DE9F341144C8600A319054698681B6955
:106090000121184309F062FF032304EB45088DF842
:1060A00006301C238DF80730B8F8183002AC0B4FBF
:1060B00024F8043D57F82500214609F083FD3E44AD
:1060C000B8F81C30B0682146ADF8043009F07AFD0C
:1060D00002B0BDE8F08100BF588401080000002034
:1060E000F7B50F4F032307EB40078DF80630042365
:1060F0008DF807303B8B02AC0A4E24F8043D214654
:10610000054656F8200009F05DFD06EB8505BB8BC2
:10611000A8682146ADF8043009F054FD03B0F0BD85
:10612000588401080000002070B5184D84002544F3
:106130000E46286A012109F005FF154B4FF6FF7244
:10614000DA60002280211A619A61DA619A62AA6A91
:10615000596116F0010F4FF4405159621A601D4603
:1061600007D01023AB600B4B29462344186909F074
:1061700011FCB30709D50023AB60064B04491C444E
:10618000A069BDE8704009F005BC70BD58840108E5
:106190008C1600200000002010B50C4B0C684968DC
:1061A0008000D9600A4912F480420144896A18BF0C
:1061B00020221A6210225C6019609A60054B034924
:1061C00018440069BDE8104009F0E4BB8C160020BB
:1061D000588401080000002010B50C4B0C68496879
:1061E0008000D9600A4912F400420144896A18BF4C
:1061F00020221A6200225C6019609A60054B0349F4
:1062000018448069BDE8104009F0C4BB8C1600201A
:106210005884010800000020CA0738B504460D461E
:1062200005D5084B03EB8003186909F03BFBAB076E
:1062300007D5044B03EB8404A069BDE8384009F09E
:1062400031BB38BD000000202DE9F743414F044623
:106250000E463D199046994600F0D8F801238DF876
:10626000073095F8303001A88DF8043095F83230B9
:106270008DF8053095F834308DF8063009F0B0FA15
:10628000700217D495F8363001A88DF8043095F8CF
:1062900038308DF8053095F83A308DF8063009F031
:1062A0009FFA2D4B03EB84031A6A93889BB243F445
:1062B00080739380B9F1020F49D118F0010F21D0FA
:1062C000391991F83C3001A88DF8043091F83E302E
:1062D0008DF8053091F840308DF8063009F080FADD
:1062E0001D4BB10503EB84031B691A6842F00202DF
:1062F0001A601A6842F008021A6003D51A6842F060
:1063000004021A6018F0020F21D03B1993F84220C2
:1063100001A88DF8042093F8442093F846308DF8B6
:1063200005208DF8063009F05BFA0B4B03EB840473
:10633000A3691A6842F002021A601A6842F0080261
:106340001A60F20403D51A6842F004021A6003B01E
:10635000BDE8F08358840108000000202DE9F347D0
:106360001C4E054606EB0508994698F8303002ACFD
:10637000002004F8043D8A468DF805008DF80600DB
:106380008DF807002046174609F02AFA1AF4800F04
:1063900006D198F8363020468DF8043009F020FAFE
:1063A000B9F1020F13D1FA0707D5731993F83C30EE
:1063B00020468DF8043009F013FABB0707D53544A1
:1063C00095F8423020468DF8043009F009FA02B001
:1063D000BDE8F08758840108014800F033BC00BFD5
:1063E0002800002008B5024800F0EAF8002008BDA7
:1063F00028000020014800F055B900BF2800002007
:10640000014800F0EBB900BF280000204FF4A06065
:1064100009F0DCB94FF0FF32826110220273FF22D3
:10642000026100F055BE0000037B70B5012B0446ED
:1064300005D0037B102B02D0037B002B64D1207886
:10644000324D55F82020138823F001031B041B0C48
:106450001380FFF745FE2078FFF7FEFDE378022B5F
:1064600003D120786178FFF7D7FE2078FFF7E0FDB1
:106470002078FFF705FE2378E16955F823000388AB
:106480009BB243F00103038009F03AFC6269207873
:1064900012F4801F07D01D4B53F82030198889B2A1
:1064A00041F040011980D10712D555F8203002F093
:1064B000FE06998989B241F001019981998921F0FB
:1064C000FE010904090C9981998989B231439981A6
:1064D000530007D555F820100B8823F480631B0464
:1064E0001B0C0B80E378022B02D16178FFF71CFEB6
:1064F000207861696278E378FFF7A6FE01232373B1
:10650000FFF72EFD002070BD012070BD200000208F
:1065100038B5037B0446012B04D0037B102B01D03C
:10652000037B2BBB2078FFF7DBFD2078114B53F862
:106530002020138823F001031B041B0C1380FFF79A
:106540008BFDE378022B03D120786178FFF764FE9E
:10655000207861696278E378FFF700FF00254FF04B
:10656000FF3325732561A361FFF72EFD284638BD53
:10657000012038BD200000200F4A10490346116059
:106580004BF6FF71D1804FF4806151814FF480410F
:106590000020918103211081908059700221D970CF
:1065A0004FF0FF3118739870186158609860586107
:1065B0009961DA61704700BFB8160020A08601001B
:1065C00008B583780278012B354B3AD14168496888
:1065D000002936D1017B012902D0017B062930D167
:1065E00053F822304FF2FF029A82C278012A55D125
:1065F0009A8822F400721204120C9A809A8822F46B
:1066000080621204120C9A80062282611A8B920711
:1066100005D58269012A02D082690132F6D18369E7
:10662000012B02D08369013303D1BDE80840FFF795
:10663000F1BE4FF0FF3383610123037300F05AFD75
:106640002CE053F82230998A01F470610161102125
:1066500001734FF2FF0199820169C9050AD51988B2
:106660006FEA41416FEA514189B219801988C1F33B
:106670000E011980016989050AD519886FEA41411F
:106680006FEA514189B219801988C1F30E0119804E
:10669000036903690169104600F02EFD002008BD62
:1066A000200000204FF0FF3370B50278836104466C
:1066B0004448454950F8223051F822501E682E4275
:1066C00005460E4658D0636860690021596043044E
:1066D0004ED4A378002B4BD13C4B53F822309988F1
:1066E00021F400610904090C99800521A161998AAE
:1066F000490705D4A169012902D0A1690131F6D168
:10670000A16901291DD0A16901311AD04FF0FF31D3
:106710000002A1611DD4198889B241F40071198069
:106720000621A161198B890705D5A169012902D02C
:10673000A1690131F6D1A169012902D0A169013114
:1067400004D12046BDE87040FFF764BE4FF0FF3132
:10675000A1611F4951F82220116821F00101116047
:106760009A8822F400721204120C9A800123237377
:10677000204600F0BFFC13E01649186851F82210BB
:1067800008420DD11968144B53F82230194207D032
:106790000F49102351F822202373526863685A600E
:1067A00023780C4955F8232051F8230056F823107C
:1067B0000843094951F8231040EA010353600020BF
:1067C00070BD00BF48000020C884010820000020E0
:1067D00010000020C0840108B8840108F8B50278D0
:1067E0003D4E4FF0FF3383613C4D56F8223055F853
:1067F00022101F6804460F4248D083680021596068
:1068000043691F043FD48378002B53D1344B53F892
:106810002230198889B241F400711980998821F4D5
:1068200000610904090C998006218161198B89078F
:1068300005D5A169012902D0A1690131F6D1A1696B
:10684000012902D0A169013104D12046BDE8F840F8
:10685000FFF7E0BD4FF0FF31A1612249204651F81A
:106860002220116821F0010111609A8822F400723F
:106870001204120C9A809A8822F480521204120C8C
:106880009A800123237300F036FC13E01649186840
:1068900051F8221008420DD11968144B53F82230D8
:1068A000194207D00F49102351F822202373526850
:1068B000A3685A6023780C4956F8232051F8230026
:1068C00055F823100843094951F8231040EA010301
:1068D00053600020F8BD00BF48000020B0840108CC
:1068E0002000002018000020A8840108A0840108CE
:1068F00010B500240D4BE05898B183695BB94FF097
:10690000FF33836110230373036953B9FF230361CA
:1069100000F0DEFB05E08369013302D08369013BAF
:1069200083610434082CE5D110BD00BF5000002065
:1069300038B5C3780446012B02D0022B0AD049E0B7
:106940000278274B53F822309A8892B242F4806240
:106950009A8043E00078224D55F82020938823F454
:1069600000731B041B0C938093889BB243F4006359
:106970009380237B062B01D0012910D161686269C5
:10698000FFF70AFC227855F822108B8823F48053F5
:106990001B041B0C8B80134B53F8223015E0237B18
:1069A0000A2B01D0022919D16269A168FFF714FCF2
:1069B000A278237832B955F82320918889B241F41E
:1069C00080519180084A52F823301A6842F001023F
:1069D0001A6003E010230373012038BD002038BD86
:1069E00020000020100000201800002038B5037B94
:1069F000044698074BD4237B032B48D0237B052BDD
:106A000045D0237B002B42D0237B102B3FD0022389
:106A1000237363691F4D13F0807F22781AD10621FA
:106A200055F82200A161018B890705D5A1690129CB
:106A300002D0A1690131F6D1A169012902D0A16971
:106A4000013104D12046BDE83840FFF7E3BC4FF0E8
:106A5000FF31A161A17881B955F82220DB031188AB
:106A600089B241F48071118003D520460121FFF7DE
:106A70005FFF032323731F23A3612378002055F8AE
:106A800023309A8892B242F400729A8038BD012075
:106A900038BD00BF2000002038B5037B04469D07A9
:106AA00000F1CB80037B032B00F0C780037B052B19
:106AB00000F0C380037B002B00F0BF80037B102B12
:106AC00000F0BB804269022312F0807F03735C4DAB
:106AD00016D106238361037855F823100B8B980792
:106AE00005D5A369012B02D0A3690133F6D1A369AF
:106AF000012B7CD0A369013379D04FF0FF33A36120
:106B0000E378022B07D1A3685B68012B03D142F421
:106B100000126261E3706269D30371D4A378002B21
:106B20006ED1237855F82330198889B241F48071E9
:106B300019801F21A161998AC80705D4A16901297B
:106B400002D0A1690131F6D1A16901294FD0A16913
:106B500001314CD04FF0FF31A161E1698989B1F574
:106B6000804F18D1A168896801F0FE0119820421C3
:106B7000A161998A890705D4A169012902D0A16977
:106B80000131F6D1A169012931D0A16901312ED09D
:106B90004FF0FF31A161998A198B0321A161998A74
:106BA000080605D4A169012902D0A1690131F6D1F5
:106BB000A16901291BD0A169013118D04FF0FF3123
:106BC000A161910322D4A268127B1A820322A261DE
:106BD0009A8A120605D4A269012A02D0A26901325A
:106BE000F6D1A369012B02D0A369013304D1204659
:106BF000BDE83840FFF70EBC4FF0FF33A36105E05E
:106C0000E178022902D12046FFF792FEA2780523FF
:106C10002373237842B955F82320118889B241F4AF
:106C2000807111801F22A26155F8233000209A88BC
:106C300092B242F400729A8038BD012038BD00BF84
:106C40002000002073B50278954E0023ADF8063081
:106C500056F822300446998A01F0DF01ADF806109B
:106C60008178002930D1BDF80610C9072ED54FF024
:106C7000FF318161C1698989B1F5804F13D1017BF1
:106C8000052907D18168896841F00101C9B21982DB
:106C90000A2305E04168896801F0FE011982062394
:106CA00023730423A361E378012B0DD1237B0A2BEB
:106CB0000AD1A3685B68022B06D156F822301A88E5
:106CC00092B242F400621A800025FDE1BDF8061080
:106CD00001F0020189B2002900F08880C278022AFE
:106CE0000BD1017B062901D1416803E0017B0A2910
:106CF00003D181684968013101E04FF0FF31A161A2
:106D0000217B0A290DD1012A0BD1A1684D6845B913
:106D1000198889B241F400711980998A1B8B2273FA
:106D2000D2E1237B0A2B05D1012A03D1204602217F
:106D3000FFF7FEFD237B21780A2B15D1A3685B6842
:106D4000012B11D156F821301A8822F480621204E6
:106D5000120C1A8072B69A8A1A8B1A8892B242F46E
:106D600000721A8062B618E0E378012B11D1237B00
:106D70000A2B0ED1A3685B68022B0AD156F821209A
:106D8000938A138B138823F480631B041B0C1380DA
:106D900003E056F821309A8A1B8B636913F480351F
:106DA00092D1227B062A1CD19B031AD4626856F822
:106DB0002130127B1A820322A2619A8A160605D418
:106DC000A269012A02D0A2690132F6D1A369012B7E
:106DD00000F06281A369013300F05E814FF0FF3360
:106DE000A36120460321FFF7A3FD6DE1BDF8062056
:106DF000150657D5027B062A54D1C278012A7FF4A2
:106E000063AF426855686DB1106804781C8253689E
:106E1000013B53605368002B3FF456AF01301060C4
:106E20000D4651E1426912F4000004D11A8892B271
:106E300042F400721A809A88062122F40072120429
:106E4000120C9A809A8822F480621204120C9A80A2
:106E5000A16180B99A8A02F084027AB1A269012AFA
:106E60000CD0A2690132F5D108E0A269012A05D04F
:106E7000A269013202D09A8A1006F6D4A369012BC6
:106E800000F00A81A369013300F006814FF0FF335F
:106E9000A36101232373204600F02CF914E100BF05
:106EA00020000020BDF8062051067FF50DAF227BA3
:106EB0000A2A7FF409AFE278012A7FF405AFA268BD
:106EC0005168032900F2AF805168012906D11B8A5D
:106ED00012681370A3685A68013A5A60A1684B6837
:106EE000022B3FD1237856F823309A8822F480620F
:106EF0001204120C9A800522A2619A8A520705D4C4
:106F0000A269012A02D0A2690132F6D1A269012A3E
:106F100000F0C280A269013200F0BE804FF0FF3263
:106F2000A2611A8892B242F400721A801B8A0A681F
:106F30001370A3681A68511C1960596801395960A7
:106F4000237856F823301B8A5370A3685A68013A95
:106F50005A60237856F82320138823F400631B0417
:106F60001B0C1380A1684B68032B66D1237856F85D
:106F700023309A8822F480621204120C9A8005222F
:106F8000A2619A8A550705D4A269012A02D0A26992
:106F90000132F6D1A269012A7ED0A26901327BD0EA
:106FA0004FF0FF32A2611A8822F480621204120CA0
:106FB0001A801B8A0A681370A3681A68511C19602A
:106FC000596801395960237856F82330198889B2F5
:106FD00041F4007119801B8A5370A3681A68511C10
:106FE00019605968013959600323A361237856F861
:106FF0002330998A480603D5A169012907D14BE0BE
:10700000A1690129F8D0A1690131F2D1F4E7A169A0
:10701000013141D04FF0FF31A1611B8A5370A36849
:107020005A680A4408E012681B8A1370A3681A6839
:1070300001321A605A68013A5A60A3685D68002DEF
:107040007FF442AE237856F823309A8822F40072F7
:107050001204120C9A809A8822F480621204120C94
:107060009A809A8A1A8A6269910204D522F40012DF
:1070700062610222E2700622A2611A8B920705D594
:10708000A269012A02D0A2690132F6D1A269012ABD
:1070900002D0A269013204D12046FFF7BBF90546B0
:1070A00012E04FF0FF32A2611A88204692B242F4F9
:1070B00080621A801A8822F400621204120C1A806C
:1070C0000123237300F017F8284602B070BD00BFFB
:1070D00007B5064B022000933921054A002307F02B
:1070E0005BFC012003B05DF804FB00BF64B1010844
:1070F000D08401087047704707B5064B0191009393
:107100000220BD21044A002307F046FC03B05DF8CD
:1071100004FB00BF6CB10108EA840108014B036065
:10712000704700BF6886010810B5034B0446036032
:1071300000F08EFC204610BD6886010830B53A4B41
:107140008DB01321394A00930220002307F024FC5C
:107150000E2000F07BFC0221044600F081FD204659
:1071600000F00AFE20460AA900F0CDFE00B3304B25
:10717000022000939DF828301A2101939DF82930B0
:107180002A4A02939DF82A3003939DF82B300493EA
:107190009DF82C3005939DF82D3006939DF82E30E8
:1071A00007939DF82F300893002307F0F5FBD9E7EC
:1071B000204600F04DFC242000F048FC1D4C02212C
:1071C0001D4A054600F092FC2420256000F03EFC9C
:1071D00002211A4A054600F089FC1020656000F083
:1071E00035FC054600F01CFF0C20A56000F02EFCCD
:1071F000054600F0F3FF2820E56000F027FC054677
:1072000001F0F6F80C20256100F020FC054601F0A5
:107210000BFA1020656100F019FC054601F070FAC8
:10722000A5610DB030BD00BF76B10108048501082D
:1072300090B10108DC04002058000020600000200C
:107240002DE9F0438A4C93B009AD42F2107002F080
:1072500097F82946206800F05BFC206800F072FC7B
:1072600007463946206800F0CBFC8146206800F0D4
:1072700067FC804E804638460096FEF7ADF8CDE9B3
:1072800002014846FEF7A8F87B4A0023CDE9040135
:10729000CDF8188002203621079507F07DFB29469E
:1072A000606800F035FC606800F04CFC0746394629
:1072B000606800F0A5FC8146206800F041FC804633
:1072C00038460096FEF788F8CDE902014846FEF7F9
:1072D00083F8694ACDE90401002302203C21CDF85E
:1072E0001880079507F058FB206901F039F901284B
:1072F0001AD1206901F07CF90646206901F07AF97B
:107300005E4B054630460093FEF766F8CDE9020174
:107310002846FEF761F8584ACDE90401002302200F
:10732000402107F039FB07E0554B02200093422132
:10733000514A002307F030FB606901F08DF9012804
:1073400010D14B4B586901F085F94E4B0093FEF775
:1073500043F8494ACDE9020100230220462107F003
:107360001BFB07E0484B022000934821424A0023C0
:1073700007F012FBE06800F047FF01283C4D1AD1EE
:10738000E86800F0D9FE0646E86800F0CDFE3F4B05
:10739000054630460093FEF71FF8CDE90201284666
:1073A000FEF71AF8344ACDE90401002302204D21EA
:1073B00007F0F2FA07E0364B0220009350212E4AE4
:1073C000002307F0E9FAA06800F046FE0128284DE6
:1073D0001AD1A86800F0A6FE0646A86800F0A0FE34
:1073E0002C4B054630460093FDF7F6FFCDE9020130
:1073F0002846FDF7F1FF204ACDE9040100230220D1
:10740000542107F0C9FA07E0234B022000935621CC
:10741000194A002307F0C0FAA06901F091F9012888
:10742000134D1AD1A86901F085F90646A86901F043
:1074300083F91A4B044630460093FDF7CDFFCDE9A2
:1074400002012046FDF7C8FF0B4ACDE904010023E5
:1074500002205A2107F0A0FA07E0114B0220009306
:107460005C21054A002307F097FA13B0BDE8F083CA
:10747000DC040020A8B1010811850108E8B1010869
:10748000FDB101080BB2010812B2010822B20108D5
:1074900038B2010848B201086AB2010876B20108A0
:1074A00099B2010813B5084C002100910A460B4619
:1074B000204602F0EBF90549054A204602B0BDE836
:1074C00010400DF0E3BC00BFF80400201D7100085F
:1074D00068060020013101EB420291420BD0030FFC
:1074E000092B94BF3033373301F8013C00230001EE
:1074F00001F8023BF1E770471F4B10B51A88032AC9
:1075000004D804200146188008F0A8F94FF0006064
:107510004FF4A04108F098F90124184B184821466F
:107520001C7008F0A7FB06F099FB06F07FF82146D7
:10753000402008F007FD6FF07F4006F0E9F9E720F2
:1075400006F062FA0F4B1C7006F0BAF87D2008F0C6
:1075500029FD18B10C4B1C7008F038FD40F6B8300E
:1075600006F008F906F060FE07F0DAF8074A012392
:107570001370074A137010BD7416002050160020B7
:1075800000043000801500202C2000200816002068
:10759000FE15002037B5334C2388042B04D8052171
:1075A0000420218008F05AF92F4B304D009302201F
:1075B00000239F212E4A07F0EFF92B7813B12D48B5
:1075C00002F04EFF2B7853B12388052B05D8254BAD
:1075D00006210420198008F041F902F0C5FF2B783C
:1075E00063B1254B1B784BB9244B1B7833B1244B2B
:1075F0001B781BB9234B1B78002BE3D0224B1B7845
:10760000002BDFD1214B1B78002BDBD11D4B1B78CE
:10761000012B0FD01E4B6BB12388062B05D8114BC5
:1076200007210420198008F019F9FFF787FD154B91
:1076300001221A70174B002BC4D02388072B05D8C2
:10764000084B08210420198008F008F9FFF7F8FD1D
:107650002388082BB6D8034B09210420198008F091
:10766000FDF8AFE774160020A6B201080816002046
:107670001D8501081D8E0008BD150020FE15002087
:107680007E150020000500207F1500202C20002002
:107690003D71000841720008F8B5524B1A6812B1EA
:1076A0001A68013A1A60504B504D1B783BB1504B51
:1076B0001B78002B28D04F4B002B47D124E04E4C99
:1076C0002368264613B12368013B0FE04B4B1B7820
:1076D000D3B94B4B1B78BBB94A4B1B78A3B94A4F64
:1076E0003B782BB1E72006F003FA142323600BE06C
:1076F0002B78002B2DD1E72006F0B4F9434B1B78F3
:10770000002B34D0322333602B7833B1404C2378B4
:107710001BB92EE05A6801325A603E4B1A68B2F526
:107720007A7F0FD300221A6008F06AFB3A4B4FF6BB
:10773000FF711A888A4254D019800420BDE8F840AD
:1077400008F08CB81A6801321A60F8BD01F0B0FB7D
:10775000DAE7324B1B78002BCDD04FF6FF7006F0E6
:10776000D7F8E72006F050F901233B70CCE76423FB
:10777000C9E7234B1B788BB1294B47F22F5259682D
:107780009142C7D9BFF34F8F264A274BD16801F4E6
:10779000E0610B43D360BFF34F8FFEE7174D2B78AB
:1077A00003F0FF0633B9304606F0BAFA40F6B733B5
:1077B00098420DD8002006F0B3FA41F657339842AC
:1077C000ABD9002006F0B4FA184B01221A70A4E7D6
:1077D000304606F0ADFA2378002B9ED101232B70A2
:1077E0009BE7F8BD3420002030160020081600204A
:1077F000CC080020B18E000830200020AE150020FB
:107800007F15002081150020801500207D150020A7
:10781000BD15002038200020741600207E150020A1
:107820000005002000ED00E00400FA05AC15002082
:1078300008B5094B186006F09DFC002006F0E6FC38
:10784000064805F017FF06F0ADFC06F0CBFCBDE8DE
:10785000084007F08BBD00BF1C030020A08601007C
:10786000074B1B68052B08D1064B1A7A012A04D155
:10787000987A1B7BC01AC0B270470020704700BFC7
:1078800078160020000500200D4B10B51B68052B55
:1078900013D10C4C237A012B0FD16289A389D31AFF
:1078A000012B04D100230320237207F0B6FEA38925
:1078B0005A1CA2811C44A07B10BD4FF0FF3010BDAC
:1078C000781600200005002008B50C4B1B68052B1E
:1078D00012D10B4B1A6D99180132B2F5807F08BF97
:1078E000002281F854001A6506F012FB20B16420D2
:1078F000BDE8084005F0BEBE08BD00BF78160020F8
:1079000000050020F8B5234B93F85421012A3FD0FD
:10791000D3F85821196DB2F5807F04BF0022C3F857
:107920005821D3F858411B4A8C4203D1002382F8D6
:107930005431F8BD8CBFC4F58071C4EB0101C2F8AD
:107940005C11D3F85C61134D402EA2B207D94034CC
:10795000403EC5F85841C5F85C61402706E0344414
:107960000021B7B2C5F85841C5F85C110A48012496
:107970001044C0213A4683F8544107F0C9FD20461F
:10798000394607F0CDFE2046BDE8F84007F032BE8C
:10799000F8BD00BF0005002054050020094B10B5BC
:1079A00093E8140008331B68D0180AD0064908224F
:1079B000FFF790FD204605490422BDE81040FFF77F
:1079C00089BD10BDE8F7FF1FCB020020DB020020BD
:1079D00013B5084C002100910A460B46204601F0E1
:1079E00055FF0549054A204602B0BDE810400DF09C
:1079F0004DBA00BF600600201D7100086806002017
:107A000038B504460D46AC4203D254F8043B9847BF
:107A1000F9E738BD08B507480749FFF7F1FF074800
:107A20000749FFF7EDFFBDE8084006480649FFF7A4
:107A3000E7BF00BFC8BC0108C8BC0108C8BC01083A
:107A400038BD010838BD010838BD01080EF02CBB57
:107A50000EF032BB07B5064B052000936E21054A98
:107A6000002306F099FF072006F0E4FFFEE700BFC1
:107A7000B8B201082885010807B50C4A13681844F4
:107A800010600B4A90420CD90A4B052000938B21C1
:107A9000094A002306F080FF082006F0CBFF0EF015
:107AA000E5FA184603B05DF804FB00BF680000204B
:107AB00000480020C4B20108388501084FF0FF30AB
:107AC000704701207047000007B5064B0520009362
:107AD00040F21511044A002306F05EFF0C2006F068
:107AE000A9FFFEE7D0B2010849850108136870B507
:107AF00003615368044643610E200E46FFF7A6FF5C
:107B00003146054600F0ACF82560204670BD000007
:107B100010B5847C86B0027C437C0094C47C0194C4
:107B2000047D0294447D0394847D0494C07D05907B
:107B3000084602490EF074FC06B010BD90B1010871
:107B40001A30704770B50546044655F8100B00F022
:107B500013F92068294600F0C5F920684421002265
:107B600000F08EF90C26206800F0ACF968B12068AE
:107B700000F002F92946206800F0B4F92068BE211F
:107B8000002200F07DF9002505E0642001F0F8FBFB
:107B9000013EE8D1EBE7206800F094F96319013564
:107BA000092D1871F7D12379607943EA0020237EEB
:107BB0006BB1E37A00B2102B08BFA37A4FEAC00082
:107BC00002BFC3F10C0320F00F00C0180FE0237AAE
:107BD00013F0600302D120F0070008E0202B02D14F
:107BE00020F0030003E0402B02D120F0010080B21E
:107BF00000B2FEF711F84FF07651FEF761F870BD54
:107C000008B50846FDF7E8FB05A3D3E90023FDF717
:107C100037FC0022044BFDF781FAFDF7F3FE08BDA7
:107C2000CDCCCCCCCCCCFC3F00004040AFF30080AE
:107C300013B5084C002100910A460B46204601F07E
:107C400025FE0549054A204602B0BDE810400DF06A
:107C50001DB900BF6C0600201D71000868060020D9
:107C600038B504460D460846012101F0FFFA25808B
:107C7000204638BD038818214B43034AD118D358F6
:107C80008A885A61704700BF74000020F7B50288E7
:107C900018214A43124B054699189C58114A8F885F
:107CA00094421E4608BF042003D00F4B9C4203D1D0
:107CB0000820012108F052F910238DF80730032322
:107CC0008DF806302B88182202FB03660023ADF8DE
:107CD00004702046B37301A907F074FF03B0F0BD30
:107CE0007400002000080140000C014003881821A6
:107CF0004B43034AD118D3588A881A61704700BF92
:107D000074000020F7B5028818214A43114B05463C
:107D100099189C58104A8F8894421E4608BF042028
:107D200003D00E4B9C4203D10820012108F016F924
:107D300004238DF807302B88182202FB03660123E9
:107D4000ADF804702046B37301A907F03BFF03B000
:107D5000F0BD00BF7400002000080140000C01408D
:107D6000038818214B43034AD118D058898807F05B
:107D700077BF00BF7400002038B5044601F01EFD37
:107D80002046FFF7BFFF01F02FFD7D25013D15F0D7
:107D9000FF052AD0022001F039FB2046FFF7E0FF63
:107DA0000028F3D001F00AFD2046FFF763FF2046CC
:107DB000FFF76CFF01F018FD4FF4F07001F026FBA7
:107DC00001F0FCFC2046FFF79DFF462001F01EFB62
:107DD0002046FFF7C5FFD0F1010538BF002501F0AF
:107DE00003FD4FF4CD7001F011FB284638BDCB07E1
:107DF00010B5044611D501F0E1FC2046FFF73AFF2B
:107E00002046FFF743FF0A2001F000FB2046FFF762
:107E10006DFF01F0E9FC372010E001F0CFFC2046B7
:107E2000FFF728FF2046FFF731FF412001F0EEFA6F
:107E30002046FFF75BFF01F0D7FC0520BDE81040AE
:107E400001F0E4BA10B5044601F0B8FC2046FFF793
:107E50001DFF2046FFF70EFF032001F0D7FA204652
:107E6000FFF750FF0A2001F0D1FA2046FFF778FF14
:107E7000044601F0B9FC352001F0C8FA204610BDD7
:107E80002DE9F0410446884617460825012616EAE2
:107E9000080F0CBF002101212046FFF7A8FF760044
:107EA000013DF6B2F3D15FB901F088FC2046FFF73F
:107EB00029FF2046FFF7DEFEBDE8F04101F094BC4B
:107EC000BDE8F081F8B507460825002401263846AC
:107ED000FFF7B8FF00B134437600013DF6B2F6D1AA
:107EE0002046F8BD70B500220D4655210646FFF725
:107EF000C7FF0024295D304600220134FFF7C0FF90
:107F0000082CF7D170BD2DE9F047057B0446894662
:107F1000002D59D1FFF730FF20B9A0722073E07215
:107F2000BDE8F0872A462046F021FFF7A9FF012689
:107F3000A846AA4635462046FFF784FF0746204656
:107F4000FFF780FF012F02D1012815D132E08742CF
:107F500004EB080318D1A27A954205D29A7816420A
:107F60000CBF0027012702E014BF002701271FB91B
:107F7000082D08D8E57206E004EB08039A7801277B
:107F800032439A7004E0AA469A7822EA06029A706E
:107F9000204639467600FFF72AFF013516F0FF0626
:107FA000EDB204D108F101085FFA88F80126B8F1B2
:107FB000070FC0D9402D07D984F80AA0BAF1000FE5
:107FC00010D1012323730DE00020A0722073E07212
:107FD0000023E218927809F803200133082BF8D126
:107FE000BDE8F087A378002BEED00120F0E7000079
:107FF00013B5084C002100910A460B46204601F0BB
:1080000045FC0549054A204602B0BDE810400CF089
:108010003DBF00BF740600201D71000868060020E7
:1080200070B50A4D04462B6833B90120FFF70EFDE9
:10803000064600F02FFC2E602B682046E3600123EB
:108040002372034B6360236070BD00BF8016002065
:108050000000C8C2000000007FB50226009604465A
:108060004021C068E52203AB00F066FC012821D066
:108070009DF80D309DF80C00012543EA0020257283
:10808000FDF798F90022224BFDF7FAF90022214B67
:10809000FDF7F6F90022204BFDF73EF8FDF7B2FCA4
:1080A000009620604021E068E32203AB00F044FC2E
:1080B000A84205D1194B00202072636023601AE0AA
:1080C0009DF80D309DF80C00257243EA0020FDF765
:1080D00071F90BA3D3E90023FDF7D2F900220D4B70
:1080E000FDF7CEF908A3D3E90023FDF715F8FDF756
:1080F00089FC6060284604B070BD00BFAFF300800B
:10810000D7A3703D0AF76540CDCCCCCCCC6C4740B2
:1081100000405F400000F03E000018400000C8C270
:10812000006870474068704708B500680149FDF76E
:10813000BFFC08BD0040B54408B54068FDF74CF9E8
:1081400003A3D3E90023FCF7E9FFFDF75BFC08BDBF
:10815000CDCCCCCCCCCCEC3F7FB5012604AC3823C5
:1081600004F8013D009605462346602126228068DA
:1081700000F0BCFB9DF80F30009643F002038DF831
:108180000F30A86860212622234600F0AFFB04B020
:1081900070BD7FB5382304AC012504F8013D00957E
:1081A0000646602180682622234600F09FFBA842F5
:1081B00001D100200FE007238DF80F300095B06843
:1081C00060211322234600F091FB0128F1D03046B4
:1081D000FFF7C2FF284604B070BD000070B5094D1E
:1081E00004462B6833B90120FFF730FC064600F047
:1081F00051FB2E602B682046A360FFF7CAFF204684
:1082000070BD00BF801600202DE9F041002386B02C
:1082100006468DF80F30C82401270DF10F03009793
:10822000B0686021062200F087FB9DF80F3013F044
:10823000060F0AD10A20013C01F0A2F814F0FF0455
:10824000EAD13046FFF7A5FF59E003230093B06859
:1082500060213A4605AB00F06FFB012804D130469F
:10826000FFF77AFF00244AE002230093B068602100
:10827000042204AB00F060FB0128F0D09DF8100050
:10828000FDF7C6FCFDF7A8F804469DF811000D4661
:108290000009FDF78FF800221B4BFDF7F1F80246AD
:1082A0000B4620462946FCF739FFFDF7ABFB706013
:1082B0009DF815009DF81480000240EA084040EA4D
:1082C00008008009FDF7A4FCFDF786F80446C8F312
:1082D00001100D46FDF7A0FCFDF77EF800220B4BC8
:1082E000FDF7CEF802460B4620462946FCF716FF5E
:1082F000FDF788FB30603046FFF72EFF3C462046F6
:1083000006B0BDE8F08100BF0000B03F0000D03FE4
:1083100013B5084C002100910A460B46204601F097
:10832000B5FA0549054A204602B0BDE810400CF0F8
:10833000ADBD00BF7C0600201D710008680600204E
:108340001FB5022300930A4604467721406A03AB17
:1083500000F0F2FA012802D10020207005E09DF81B
:108360000C009DF80D3043EA002004B010BD02233C
:1083700010B5AA2103700446FFF7E2FFAC2160802C
:108380002046FFF7DDFFAE21A0802046FFF7D8FF93
:10839000B021E0802046FFF7D3FFB22120812046A4
:1083A000FFF7CEFFB42160812046FFF7C9FFB62159
:1083B000A0812046FFF7C4FFB821E0812046FFF7E7
:1083C000BFFFBA2120822046FFF7BAFFBC2160829E
:1083D0002046FFF7B5FFBE21A0822046FFF7B0FF81
:1083E0002378E082022B04BF01232370207810BD84
:1083F00070B5094D04462B6833B90120FFF726FB01
:10840000064600F047FA2E602B6820466362FFF7AD
:10841000AEFF204670BD00BF801600201FB52E2283
:1084200004AB03F8042D0122009204467721406A30
:10843000F42200F05BFA012802D1002323701BE034
:10844000052000F09DFF2046F621FFF779FF2378F5
:1084500093B1A389B4F91620C01A63894343B4F9D0
:108460001400DB13C0021A4490FBF2F01844A06120
:108470000830C0F30F1001E04FF69C7000B204B05A
:1084800010BD00007FB5B42304AD05F8043D012301
:10849000009304467721406AF4222B4600F026FA26
:1084A00001280CD00E2000F06BFF03230093606ABC
:1084B0007721F6222B4600F03FFA012804D1002351
:1084C00023706FF0630047E0A269B4F90E30A2F5A3
:1084D0007A6202FB02F0B4F9061005136B435143B4
:1084E0001B1403EB613102312389891001F500412E
:1084F00059439DF80D309DF80C501B0243EA05438B
:108500009DF80E50B4F910602B43B4F90250B4F941
:10851000044070436243D21202EBE05000EB85004E
:10852000C0EB931343F2D40253434FEAD13155BF0A
:108530005B00B3FBF1F3B3FBF1F35B0018124043B4
:1085400040F6DE325043054A5A43121402EB2040F3
:1085500000F6CF6003EB201004B070BD43E3FFFFD3
:1085600038B5037804462BB12046FFF757FF25782E
:10857000CDB109E0406A00F02BFA2046FFF7F7FE84
:1085800005460028F0D122E0FCF714FF12A3D3E93E
:108590000023FCF775FFFDF735FAE0612046FFF791
:1085A00071FF25781DB9104BE36123620FE0FDF7E1
:1085B00033FBFCF711FF0AA3D3E90023FDF78AF888
:1085C00000220A4BFDF786F8FDF71CFA20622846C8
:1085D00038BD00BFAFF300809A9999999999B93F36
:1085E000C1E8393C0A77EF3F0000C8C2000059409B
:1085F000C0697047006A704713B5084C00210091AC
:108600000A460B46204601F041F90549054A204635
:1086100002B0BDE810400CF039BC00BF8C06002051
:108620001D7100086806002070B5094D04462B68CE
:1086300033B90120FFF70AFA064600F02BF92E6045
:108640002B682046A360012323710023236070BDA3
:108650008016002000687047F0B5037985B00646A3
:1086600013B9806800F0B4F901240094B0684B217C
:1086700003220DF10F0300F05FF9A0420CD034711A
:108680000094B0684B2104220DF10F039DF80F50A8
:1086900000F052F9012802D10020307127E0347136
:1086A0002809FCF777FE02460B4600204FF0804178
:1086B0009DF80F700CF018FC47EA0517FFB204464E
:1086C00038460D46FCF776FE02460B462046294604
:1086D000FCF7D6FEFDF796F9FCF77EFE06A3D3E97C
:1086E0000023FCF7CDFEFDF78DF93060307905B041
:1086F000F0BD00BFAFF300800AD7A3703D0AA73FCB
:1087000070B50A4D04462B6833B90120FFF79EF976
:10871000064600F0BFF82E602B682046E360012378
:108720002372034B2360636070BD00BF801600207E
:108730000000C8C200687047406870470000000031
:1087400073B5002602AD05F8046D04462721C06804
:108750002A46334600F0A4F8012805D12C4B267296
:1087600023606360304649E00A26E06827212A46F4
:10877000042300F007F9012805D1254B00202072C1
:10878000236063603AE0012323729DF8043013F004
:10879000C00F2DD19DF807309DF806509DF80400BC
:1087A00043EA05259DF8053000F03F0003EB00206B
:1087B000FDF72EFAFCF710FE11A3D3E90023FCF716
:1087C0005FFEFDF71FF9AD0860602846FDF720FA4F
:1087D000FCF702FE0CA3D3E90023FCF751FE0022B4
:1087E0000C4BFCF799FCFDF70DF92060207A05E0B1
:1087F0000A2000F0C5FD013EB7D1CBE702B070BD45
:1088000007F0164850FC783F73A25D85949F843F23
:108810000000C8C20000444013B5084C002100917C
:108820000A460B46204601F031F80549054A204624
:1088300002B0BDE810400CF029BB00BF9406002038
:108840001D7100086806002070B510200DF02CFC8A
:108850000E4B0F4D03604BF6FF73C3804FF48063E4
:10886000002643814FF4804304468680068183813D
:108870002846FDF781FE0123AE70EB706E61EC615E
:108880002846BDE87040FDF7CFBD00BFA0860100BF
:108890002800002010B50446FFF7D6FF204610BD83
:1088A0001FB5114C4FF480300092002260614900E6
:1088B000019320460DEB0203029103926360FEF7E1
:1088C00095F838B9237B012B06D0074B1B7B102B67
:1088D000F8D101E0012004E0207BB0F11003584200
:1088E000584104B010BD00BF280000201FB5114C36
:1088F00000939DF8183000206061490001930DEB52
:1089000000032046029103926360FEF76FF838B9C6
:10891000237B012B06D0074B1B7B102BF8D101E0EA
:10892000012004E0207BB0F110035842584104B00C
:1089300010BD00BF280000201FB5114C00939DF80A
:10894000183000206061490001930DEB00032046C0
:1089500002910392A360FEF79FF838B9237B012BA5
:1089600006D0074B1B7B102BF8D101E0012004E05F
:10897000207BB0F110035842584104B010BD00BF35
:10898000280000201FB5114C4FF4803000920022C7
:1089900060614900019320460DEB020302910392AE
:1089A000A360FEF779F838B9237B012B06D0074B7B
:1089B0001B7B102BF8D101E0012004E0207BB0F1FB
:1089C00010035842584104B010BD00BF28000020D9
:1089D00010B5044C2046FDF79BFD2046BDE8104035
:1089E000FDF722BD28000020014B1868704700BF2A
:1089F0009C060020064B0246582000FB013101F185
:108A0000080303CB1060516018689060704700BF86
:108A10009C060020014BD3F8640170479C0600209F
:108A2000064B0246142000FB013101F5B67303CB5F
:108A30001060516018689060704700BF9C0600206D
:108A400038B50546064C28B105F004F8012384F832
:108A5000303238BD04F0ACFF84F8305238BD00BF6E
:108A60009C0600200E4B2DE9F041D3F8647180463E
:108A70000024BC4211DA14256543094E414606F52F
:108A8000B67028440C220DF00CFD20B93544D5F801
:108A90006801BDE8F0810134EBE70020BDE8F0811A
:108AA0009C060020044B01221A70044B00224FF454
:108AB000C0201A6005F02EBC7F15002004050020A0
:108AC000034A00231370034A136005F081BC00BF02
:108AD0007F15002004050020024B00221A6005F0DB
:108AE00041BC00BF040500202DE9F04788B0804656
:108AF00068460D4601F00EF81E4B0024D3F800A086
:108B000054452DDA55B3582666431A4F414607F1AE
:108B1000080030440C2207F104090DF0C2FCE8B94A
:108B200028460DF0B6FC06F11003402834BF02467B
:108B30004022294609EB03000DF0E3FA3E440123ED
:108B400086F85830694604A8746801F005F804A84E
:108B5000A047044604A800F09BFF03E00134CFE7E0
:108B60004FF0FF34684600F093FF204608B0BDE8A0
:108B7000F08700BF9C06002037B5184D286803F029
:108B800031F8411E4C424C41BCB1154B154A009383
:108B90002B680220019340F23111002305F0FCFE06
:108BA0002B685A1C09D0104A02208DE80C0040F2B4
:108BB00035110C4A002305F0EFFE2B68013309D173
:108BC0000A4B0220009340F23911064A002305F0B7
:108BD000E3FE0124204603B030BD00BF6C0000203E
:108BE00004B301086485010845B3010877B301089F
:108BF00037B5104B05461B780C4633B90E4B1B7826
:108C00001BB9FFF7B9FF034658B10C4B0220009384
:108C10004FF4BC710A4A002305F0BEFE4FF0FF304E
:108C200005E0084A29461068224603F0AFFF03B06A
:108C300030BD00BFBC150020BD15002095B3010854
:108C40007D8501086C0000202DE9F041354B86B090
:108C50001B7880460F46002B55D1334B1B78002BD9
:108C600051D1FFF789FF044600284CD12F4E06A9A9
:108C700033688DF80C005A098DF80D008DF80E0040
:108C80008DF80F0001EB8202012003F01F018840E4
:108C900052F80C1C0494014342F80C1C41F2883237
:108CA000059204AA0092581C03A92246234603F009
:108CB0004FFE051E1ADD336806AA590902EB810131
:108CC00051F80C5C03F01F02154115F0010025D08E
:108CD0001846414623463A4603F0DAFE144B054651
:108CE0008DE82800022040F2A31106E009D0114BC4
:108CF00002208DE8280040F2A9110F4A234605F012
:108D00004BFE28460AE00D4B0220009340F28911E9
:108D1000094A002305F040FE4FF0FF3006B0BDE8E1
:108D2000F08100BFBC150020BD1500206C000020A4
:108D3000CEB30108E0B30108A785010895B3010887
:108D400030B51F48ADF57B7D07F024FC002834D1F9
:108D50001C4B17A805931C4B61AD06931B4B04904D
:108D600007931B4B0EAC08931A4B039509931A4BB0
:108D70000A931A4B0B931A4B0C931A4B0D931A4BE5
:108D80000E931A4B0F931A4B10931A4B11931A4BC5
:108D900012931A4B13931A4B14931A4B15931A4BA5
:108DA000169305F05BFB284605F05EFB0094044833
:108DB000164903AA05AB07F0F4FB0DF57B7D30BD2A
:108DC000D0080020F18B0008498C0008A58A000813
:108DD000C18A000899E40008D98A0008418A00087D
:108DE0007D930008399C0008E9890008F58900088E
:108DF000E98A0008158A0008218A000811920008F3
:108E0000658A000875E4000889E40008E8F7FF1F98
:108E1000014808F0FCBA00BFD008002030B502209D
:108E20008DB00146112203F0D5FC051E28DB07A8F2
:108E3000144907F006FD0223ADF80C3016238DF817
:108E40000E3033238DF80F30E0238DF810300023DF
:108E50008DF8113001238DF81230BB238DF81330BB
:108E6000032403AB009310230193284607A9132280
:108E7000002303F095FE013CF3D1284603F0DAFC11
:108E80000DB030BDE8F7FF1F38B5084CFFF758FFAD
:108E9000204607F082FB204607F05DFF0546FFF7FE
:108EA000BDFF204607F0C6FE284638BDD00800208A
:108EB00038B5124CD4F8585B2DB1D4F8583B013B6F
:108EC000C4F8583B38BD0E4AD4F85C3B02EB830330
:108ED000D86E04F045FDE72004F096FD6423094AAE
:108EE000C4F8583BD4F85C3B526801339342C4F851
:108EF0005C3BA8BFC4F85C5B38BD00BF9C0600208B
:108F0000648501086C0000202DE9F041354B86B0E6
:108F10000093022000234FF41C71334A05F03CFDFE
:108F200001210622022003F055FC304B06468DE855
:108F30004800022040F272212B4A002305F02CFD4C
:108F4000002E4ADB3523022500248DF80B304FF428
:108F5000FA5008238DF80C308DF80D308DF80E3056
:108F60008DF80F30ADF808508DF80A4001F070FA16
:108F70001F4B80460093284623464FF422711A4A1D
:108F800005F00AFD02A91022304603F0B3FC194B8C
:108F9000074640F28A21144A8DE888002846234675
:108FA00005F0FAFC404601F053FA134B4FF42571DB
:108FB0000D4A00932846234605F0EEFC304603F0A8
:108FC00039FC0E4B01900093284640F29621064A48
:108FD000234605F0E1FC384601E04FF0FF3006B0D3
:108FE000BDE8F081F0B30108EC850108F7B3010892
:108FF0000EB4010816B401082EB4010834B40108F7
:1090000037B5164B164D00930220002340F2E6219F
:10901000144A05F0C1FC2B68002B1ADB124B40F2FE
:10902000EF21104A00930220002305F0B5FC2868C8
:1090300003F000FC0D4B04468DE8180002200023CD
:1090400040F2F121074A05F0A7FC4FF0FF332B60F7
:1090500000E00024204603B030BD00BFBEB60108CA
:109060006C000020008601082EB4010841B40108FC
:109070002DE9F0414B4BA8B04B4C0093236840F2D4
:109080009F214A4A01930220002305F085FCFFF747
:10909000B7FF01210622022003F09CFB444B206015
:1090A00040F2A62100930190002302203F4A05F0E0
:1090B00073FC2368A046002B64DB3E4D0223A5F819
:1090C000603B162385F8623B07A8332385F8633B92
:1090D00005F090F9002302939DF81C303BB1012B61
:1090E00017D0354B03AE03F11004324602E0089B63
:1090F000029313E018685968374603C70833A34240
:109100003E46F7D10FCA08AC07C424F8023B1B0C3B
:1091100023700A24029B0BB9013C36D1029B0BB988
:10912000264B0293029B4FF4FA501A0E85F8642BDB
:109130001A0C85F8652B1A0A85F8662B85F8673BAB
:1091400001F086F91E4B05460093022000234FF4E0
:109150003771164A05F020FC1A491022D8F8000091
:1091600003F0C8FB184B04468DE81800022040F2BB
:10917000DE210E4A002305F00FFC284601F068F9B5
:1091800020460CE04FF0FF3009E008A87E210DF0EA
:109190009EF902AA81B208A803F072FBBAE728B0D0
:1091A000BDE8F08152B401086C0000201786010868
:1091B00066B401089C06002093B4010804E5D0368B
:1091C0000EB40108FC1100207EB401080F4B2DE9FC
:1091D000F041D3F8647180460024BC4211DA1425B2
:1091E00065430A4E414606F5B67028440C220DF040
:1091F00058F920B9354495F87801BDE8F08101347B
:10920000EBE74FF0FF30BDE8F08100BF9C06002087
:1092100008B5FFF7DBFF0138082804D8034B1844D2
:1092200090F8C70008BD022008BD00BF6485010892
:1092300037B50B4C002104F537650B4600910A4603
:10924000284600F023FB28460649074A0BF01EFE7D
:1092500004F50D7003B0BDE8304007F086B900BFDB
:109260009C0600201D7100086806002014282DE9C6
:10927000F34104460E4677D8FF2975D000F0D0FBA5
:1092800020B1A4F10D039BB2022B6DD900F06AFA54
:1092900008B1012C68D900F055FE20B1A4F11203E9
:1092A0009BB2012B60D918236343314DEA18EF5864
:1092B000304BB2F804809F4201D1042003E02E4BD2
:1092C0009F4203D10820012106F048FEADF804803A
:1092D000062E45D8DFE806F0040F171F27313C00A3
:1092E00010238DF8073003238DF80630182303FB75
:1092F0000454002333E004238DF80730182303FBC4
:10930000045401232BE048238DF80730182303FB76
:109310000454022323E028238DF80730182303FB8D
:10932000045403231BE0182303228DF8073003FBAA
:1093300004548DF80620042311E01C238DF8073017
:1093400003238DF80630182303FB0454052306E09D
:1093500000238DF80730182303FB04540623A3735E
:10936000384601A906F02EFC02B0BDE8F08100BF2E
:109370007400002000080140000C014005F0C6B850
:1093800030B54FF47A7385B01C4C009323680546C2
:109390000344236005F0BAF8019006F031FD05F0B2
:1093A000B5F80290029A019BD31A0393039B002BFA
:1093B00003DA019B029A13440393039BAB421AD234
:1093C0000F4B1B78002BE8D00E4B1B78002BE4D101
:1093D000039A009B9A4203D22368B3F57A7FDCD3C9
:1093E000039B03F57A73009301F0BEF8064B1B78DC
:1093F000002BF9D1D1E705B030BD00BFB815002072
:1094000008160020BD1500207F15002004F032B999
:1094100013B5084C002100910A460B46204600F087
:1094200035FA0549054A204602B0BDE810400BF068
:109430002DBD00BF401200201D71000868060020ED
:1094400038B5184B05461C8803F580631B88A4B209
:109450009BB22BB94EF6EE62A21A18BF012205E0AC
:10946000F4B94EF6EE629B1A5A425A4192020E4BE2
:1094700002F1006404F5804413449C420ED2226839
:10948000013209D1204606F081FB042809D1A01C35
:10949000294606F07BFB38BD0434EEE7802038BD5A
:1094A000AB2038BD00400008FE43000808B508485E
:1094B00006F04EFB04280AD10548002106F066FBA1
:1094C000042804D1BDE80840024806F041BB08BDAD
:1094D0000040000800440008104B10B51C8803F53C
:1094E00080631B88A4B29BB21CB10BB1AB2010BD32
:1094F00001240B4BA40223440A4A224493420AD972
:109500001A8892B2824204D133F8023C00200B80C8
:1095100010BD043BF0E7012010BD00BF0040000873
:10952000FE43000802400008F8B5444E06F0D0FAA9
:10953000434D34884EF6EE61A4B22B888C429BB228
:109540004FF6FF7210D0944202D0002C73D142E04B
:109550000BB930466CE08B426DD1304606F0F8FA1C
:1095600004286AD1284632E04BBB1C461646354BD0
:10957000354A1B8832F814509BB2AB4208BFA6B2E2
:1095800033B29C4203D10134642CF0D10FE02E4F52
:10959000284607F1C801FFF79FFF0128F3D02846AE
:1095A000B7F8C810FFF74CFF0428ECD0F8BD2348EB
:1095B000002106F0EBFA04283FD1214838E093421D
:1095C00039D1284606F0C4FA042836D130460021A5
:1095D00006F0DCFAF8BD73B3934201D1284627E0C8
:1095E00016461A4B184A1B8832F814509BB2AB42ED
:1095F00008BFA6B233B29C4203D10134642CF0D12F
:109600000FE0114F284607F1C801FFF765FF012859
:10961000F3D02846B7F8C810FFF712FF0428ECD0A3
:10962000F8BD0748002106F0B1FA042805D1034827
:1096300006F08EFAF8BDFFF739FFF8BD00400008CC
:1096400000440008064000084812002006440008B4
:1096500010B50446FFF768FF0023044A22F81330D0
:109660000133642BF9D1204610BD00BF4812002001
:109670000148FFF7EDBF00BF12130020024B18781E
:109680005B78C01A704700BF14130020064B5A784D
:109690001978914204D99918013288785A70704724
:1096A0004FF0FF30704700BF14130020054B5A786D
:1096B0001978914202D91344987870474FF0FF30DF
:1096C000704700BF1413002070470000014B036077
:1096D000704700BF8086010810B5034B0446036045
:1096E000FEF7B6F9204610BD80860108F8B5094B93
:1096F000054693F82230164653B10C468F18BC42EB
:1097000006D02B6828469B6814F8011B9847F6E79B
:109710003046F8BD1413002010B50C4B012293F80D
:1097200022408CB193F823401F2C02D942600020C4
:1097300010BD93F824001C1884F82510411CC9B2F0
:1097400083F8241083F82310104610BD1413002052
:10975000002242604FF47A728260014A02607047D0
:1097600040860108014B93F85900704714130020FC
:1097700073B50E4C002104F164050D4E0B460091AB
:109780000A46284600F082F86C34324609492846D9
:109790000BF07CFB2046FFF7DBFF074920463246F3
:1097A00002B0BDE870400BF071BB00BF1413002085
:1097B000680600201D710008CD960008094B402264
:1097C000C3F880208022C3F880204FF40072C3F8D1
:1097D00080204FF48062C3F880204FF40002C3F869
:1097E0008020704700E100E0074B40221A60802291
:1097F0001A604FF400721A604FF480621A604FF4DE
:1098000000021A60704700BF00E100E008B5034B9A
:1098100053F8203003B1984708BD00BF90130020D3
:1098200013B5084C002100910A460B46204600F073
:109830002DF80549054A204602B0BDE810400BF05E
:1098400025BB00BFD01300201D7100086806002052
:109850002DE9F041002407460E4625463B191979AB
:109860000A22304600F0AAF82E218046304600F049
:1098700076F801344044032C0544EFD13046F979A1
:109880000A2200F09BF82844BDE8F08130B58371CE
:10989000034D9DF80C30056001714271C37130BDFC
:1098A000688601080548064B06490360064A0023FE
:1098B000037143718371C3710BF0E8BAD8130020B0
:1098C000688601081D7100086806002013B5084C61
:1098D000002100910A460B462046FFF7D7FF0549B5
:1098E000054A204602B0BDE810400BF0CFBA00BFD9
:1098F000E01300201D71000868060020014B036082
:10990000704700BF80860108F8B506460C468F18E0
:109910000025BC4207D0336830469B6814F8011B11
:1099200098470544F5E72846F8BD000010B5034BFD
:1099300004460360FEF78CF8204610BD80860108BF
:1099400038B505460C46084641B10CF0A2FD2B681F
:109950000246DB6828462146984738BD38BD08B521
:1099600003689B68984708BD30B500238BB08DF81D
:109970002430012A98BF0A220DF12304B1FBF2F32F
:1099800003FB1211CDB2092D94BF30353735EDB23E
:10999000214604F801590BB11946EFE7FFF7D0FF54
:1099A0000BB030BD10B522B90268C9B292689047B9
:1099B00010BDD2B2BDE81040FFF7D6BFFFF7F2BF2F
:1099C00013B5084C002100910A460B462046FFF7CC
:1099D0005DFF0549054A204602B0BDE810400BF086
:1099E00055BA00BFF01300201D7100086806002062
:1099F00013B5084C002100910A460B462046FFF79C
:109A000045FF0549054A204602B0BDE810400BF06D
:109A10003DBA00BFF81300201D7100086806002041
:109A2000014B587D704700BF0014002070470000B4
:109A300013B5084C002100910A460B462046FFF75B
:109A400025FF0549054A204602B0BDE810400BF04D
:109A50001DBA00BF181400201D7100086806002000
:109A600013B5084C002100910A460B462046FFF72B
:109A70000DFF0549054A204602B0BDE810400BF035
:109A800005BA00BF241400201D71000868060020DC
:109A900010B5044600680CF00FFB204610BD10B551
:109AA0000446006808B10CF007FB00232360A360A4
:109AB000636010BD38B504460D46006801310CF0F6
:109AC0001FFC10B184E82100012038BD036810B5E7
:109AD000044613B143688B4207D22046FFF7EAFFE2
:109AE00020B1A3680BB922681370012010BD70B5B6
:109AF0000E46114604461546FFF7E8FF18B9204602
:109B0000FFF7CDFF04E0A560206831460CF0B9FCFA
:109B1000204670BD38B5002304460360436083606F
:109B200003730D4639B108460CF0B3FC29460246D2
:109B30002046FFF7DCFF204638BD884210B50B46B3
:109B4000044607D0096819B19A68FFF7D0FF01E011
:109B5000FFF7A5FF204610BD10B5002304460360A3
:109B6000436083600373FFF7E8FF204610BD0000E9
:109B700013B5084C002100910A460B462046FFF71A
:109B800085FE0549054A204602B0BDE810400BF0AD
:109B90007DB900BF2C1400201D710008680600204C
:109BA00013B5084C002100910A460B462046FFF7EA
:109BB0006DFE0549054A204602B0BDE810400BF095
:109BC00065B900BF341400201D710008680600202C
:109BD00038B5184C94F92C305BB394F82D3043B35E
:109BE00006F01CFA94F82C2094F82D5051B200295C
:109BF00095FBF1F106DD01290BDC013A84F82C20FC
:109C0000002307E0013104DB013284F82C20022319
:109C100000E0012394F82D20013A84F82D20C41887
:109C200006F030FA204606F00DFABDE8384006F09E
:109C300029BA38BD3C14002010B5044606F0EEF9F0
:109C4000001B00F17F02FE2A08D906F01BFA20460D
:109C500006F0F8F9BDE8104006F014BA054A80EAAB
:109C6000E073A3EBE0735B0082F82C0082F82D30E8
:109C700010BD00BF3C14002013B5084C002100911A
:109C80000A460B462046FFF701FE0549054A2046D5
:109C900002B0BDE810400BF0F9B800BF6C14002012
:109CA0001D7100086806002013B5084C00210091C2
:109CB0000A460B462046FFF7E9FD0549054A2046BE
:109CC00002B0BDE810400BF0E1B800BF78140020EE
:109CD0001D7100086806002013B5084C0021009192
:109CE0000A460B462046FFF7D1FD0549054A2046A6
:109CF00002B0BDE810400BF0C9B800BF80140020CE
:109D00001D71000868060020014B0360704700BF0A
:109D100080860108426D836DD01A00F03F007047C5
:109D2000426D836D9A4203D0836D1844007D704765
:109D30004FF0FF307047426D836D9A4209D0836DBA
:109D4000826D03441B7D013202F03F02826518469A
:109D500070474FF0FF30704710B5034B0446036067
:109D6000FDF776FE204610BD8086010810B504463A
:109D7000D4F89C20D4F8A0309A42F9D1237C13B9AE
:109D80000023237410BDD4F8A4304021186806F0D5
:109D9000C6FB0028F4D1F1E7D0F8A43070B5044632
:109DA0000E46186840F2277106F0BFFB28B9D4F8B8
:109DB0009C20D4F8A0309A4215D1D4F89C5001359B
:109DC00005F03F05D4F8A0309D42D4F8A43013D05C
:109DD000EFF31082D20742D5D4F89C10D4F8A0201B
:109DE000914209D13BE0D4F8A43040F227711868C1
:109DF000012206F074FBE0E7186840F2277106F0D4
:109E000094FB0028DED0D4F8A4308021186806F036
:109E100086FB0028D6D0D4F8A43040F22771186809
:109E2000002206F05CFBD4F8A4301868D4F8A03007
:109E30005A1C2344C4F8A02093F85C1006F067FB7A
:109E4000D4F8A03040F2277103F03F03C4F8A030EB
:109E5000D4F8A4300122186806F041FBB2E7D4F828
:109E60009C2040F22771224482F85C60C4F89C5028
:109E70000125186825742A4606F031FB284670BD76
:109E800010B540F225510446006806F04EFB70B153
:109E9000206806F040FBE369C0B21A6C596C0132CD
:109EA00002F03F028A4202D0196C58541A642068AA
:109EB00040F2277106F039FBB8B1A3692068196C2C
:109EC0005A6C914206D1BDE8104040F22771002241
:109ED00006F005BB5A6C511C5964995C06F017FBDF
:109EE000A3695A6C02F03F025A6410BDF8B54FF4F2
:109EF0007A7383600C4B0446002503604560C0F80C
:109F0000A41004F15C07482614308F613246C86102
:109F100029460CF01AF93846294632460CF015F954
:109F200025742046F8BD00BF988601080148FFF758
:109F3000A7BF00BF700200200148FFF7A1BF00BF0C
:109F400090020020014B187C704700BF881400204D
:109F500073B50E4C002104F114050D4E0B46009113
:109F60000A462846FFF792FC1C3432462846094927
:109F70000AF08CFF20460849FFF7B8FF0749204642
:109F8000324602B0BDE870400AF080BF881400205D
:109F9000680600201D71000870020020099D00085D
:109FA00070474FF0FF307047014B0360704700BFB0
:109FB0008086010810B5034B04460360FDF748FD99
:109FC000204610BD80860108FDF75EBC08B5FDF790
:109FD00047FC08BD08B50846FDF776FC012008BD22
:109FE000002242604FF47A728260014A0260704738
:109FF000C08601080846FDF71BBC000037B50D4CB4
:10A0000000210D4D0B4600910A462046FFF73EFC0D
:10A010002A460A49204608340AF038FF2046FFF74E
:10A02000DFFF074920462A4603B0BDE830400AF06A
:10A030002DBF00BF4C150020680600201D710008D0
:10A04000A99F00087047000037B50B4C00210B4D4D
:10A050000B4600910A462046FFF718FC2A46204688
:10A0600007490AF013FF074904F108002A4603B024
:10A07000BDE830400AF00ABF6415002068060020E1
:10A080001D71000845A000080023036018467047B2
:10A09000002303601846704700230360184670478A
:10A0A0002DE9F0410B7890B004460D4616462BB1D1
:10A0B000032A54D8DFE802F002113C3C20460CF0A1
:10A0C000E8F90123024600200093019002900390DA
:10A0D00004900590214603463DE008460CF0D9F96E
:10A0E00000264FEA50088DF81E60464505F102052E
:10A0F00008AF0FD015F8023C07A88DF81C3015F8F2
:10A10000013C002110228DF81D300CF079FAB85571
:10A110000136EAE720460CF0BCF900230246012094
:10A120008DE841000293039304970593214612E0C2
:10A130000CF0AFF9074628460CF0ABF901211822C4
:10A140001E234FF0020E8DE80E4005900495304618
:10A1500021463A46002302F05BFE044B1870034B85
:10A1600001225A7010B0BDE8F08100BF70150020C8
:10A17000034610B548F21004A34208464CD00DDC4B
:10A1800048F20102934224D048F2020293422AD0BC
:10A19000992B64D1324B01229A7410BD48F280048D
:10A1A000A3420FD0B3F5084F49D048F24000834294
:10A1B00055D12B4C04F114000BF0A3FFA36A01331B
:10A1C000A36210BD264B01229A70DA7000221A7128
:10A1D00010BD234C01236371FFF7D0F800F5EA406E
:10A1E0003030A06010BD1E4C637963B1FFF7C6F834
:10A1F00000F5EA403030A0604FF47F4003F088FB68
:10A20000E72003F001FC0023637123736373A373DE
:10A21000E3732374637410BD0A7D114B62B99A60B5
:10A220004FF47F4001221A731A7403F071FBBDE8EA
:10A230001040E72003F0E8BB00221A7310BD002194
:10A2400001F043F80121044601F086F8054B1B6834
:10A250009C4204D1024B0022DA739A735A7310BDE8
:10A26000701500206C0000201FB54FF461504FF4B2
:10A2700061610A2200238DE80F00064B44F620623C
:10A280001A60684601A902AA03AB01F0B1FD05B04E
:10A290005DF804FB2C1600201FB5002300930193EA
:10A2A0000293039301A8694602AA03AB01F066FD7D
:10A2B00005B05DF804FB000070B500210A4C0E20CB
:10A2C00001F068FE102510210E2001F063FE2A46E1
:10A2D000204600210BF039FF294623460E2000229C
:10A2E000BDE8704001F00ABE9C15002030B5524D0B
:10A2F00000249FB0FF20AC70EC706C706C712C73FC
:10A30000AC746C73AC73EC732C7403F001FBE7203A
:10A3100003F07AFB21462246204602F055FD2B46EB
:10A32000012103F82D4F0E200A4601F0E7FD6B795D
:10A33000012B05D1642003F095F901F049F9F6E706
:10A3400010210C2001F026FE3C4802F0E9F93C48BF
:10A3500002F0AEFE012002F08FFE6846394900F09F
:10A3600037FEAB786A78344C1A4317D194F83C30F6
:10A37000002B57D0FF2002F031FE002852D11A24C2
:10A38000013C06D0E72003F06DFB322003F06AF9B0
:10A39000F6E7FFF791FF85F83C40E2E7E72003F09E
:10A3A00033FB04F12C030E200121002201F078FD83
:10A3B000A37813B102F09CFE20702B7801210133A9
:10A3C00085F82C300022204B0E2001F097FD002054
:10A3D00001240146012202F0F7FC214622461B4BD4
:10A3E0000E2085F82D4001F089FD02F071FC6420FB
:10A3F00003F038F9002002F035FC85F83D404FF4B9
:10A400007F4000242C7403F083FAE72003F0FCFA69
:10A4100048F2042002F0FEFDFFF726FF85F83E40DB
:10A420001FB030BDE72003F01DFBFA2003F01AF93E
:10A43000684600F029FE94E770150020E0860108C8
:10A44000B0020020A1A000089C1500209D1500204E
:10A45000024B1A6818601046704700BF2C16002087
:10A460007FB5364C0025206403F0B4FD03F0F4FC06
:10A47000334B344A0093344B34490193344B3548C1
:10A480000293354B0393354B02F0D4FB642003F069
:10A49000E9F8002002F0E6FB012348F2042084F8EA
:10A4A0003D30257402F0B6FD2D4B1A881E46012A58
:10A4B00031D00E2010212A4604F12C0301F0F0FCCB
:10A4C000102828D123791D4DABB995F82C301BB934
:10A4D000012385F83E300EE095F82D0058B901466D
:10A4E000012202F071FC01212B4603F82D1F0E20E2
:10A4F0000A4601F003FD2379BBB9104B93F83E30B7
:10A500009BB1184801F02CFDFFF7C6FE04B0BDE872
:10A510007040FFF7A9BEFF2002F060FDFFF7CCFE00
:10A520000023338003F0A8FECCE74FF47F4003F014
:10A53000EFF9E72003F068FAE3E700BF70150020A9
:10A5400011DF000891A0000825DF000889A000089D
:10A5500091DF000871A10008B9DF000899A0000888
:10A56000FE030020B41500202DE9F3419F4C05F0B7
:10A5700047FC0023A36494F84C3053B994F84D3051
:10A580003BB9A368002B38D0FEF7F8FEA3689842C9
:10A5900033D394F83D30954D002B49D0944B002691
:10A5A0004FF40471934A02200093002304F0F4F95D
:10A5B00001276E71AE602E732E6585F84C6085F8AC
:10A5C0003D606E73AE73EE736E7402F081FB6FF0DC
:10A5D0007F402F7403F09CF9E72003F015FA642004
:10A5E00003F040F895F83E3013B3304602F03AFBE2
:10A5F00085F83D70FFF77AFE1AE094F83D307B4D08
:10A60000B3B92B792BB9FEF7B9FE00F5EA4030302B
:10A61000A860002002F026FB012384F83D304FF4AF
:10A620007F400023237403F073F9E72003F0ECF973
:10A6300094F83E306D4E13B1FFF758FE05E03379C4
:10A640001BB1337B03F0FF05FBB1E278674B012AB6
:10A6500013D11A7B012A10D15B79012B0DD103256F
:10A6600065480BF016FF013D82B26349012002F0FC
:10A67000A3FA15F0FF05F3D1E570237B5B4DE3B141
:10A6800095F84D30002B75D017E029462A4628460C
:10A69000B56002F099FB59480BF0FBFE584F80461D
:10A6A00038460BF0F6FE00970190791F03204246D2
:10A6B0002B4602F023FB3571C7E794F8573023B1DE
:10A6C000504800213A220BF040FD94F88E20474B71
:10A6D00032B95A7B002A59D19B7B002B56D1D3E04B
:10A6E0001A7BFAB193F84D20E2B95A7B002A5DD06B
:10A6F00018E02B4603F82F2F0E200121032201F032
:10A70000FDFB00264FF6FF70267403F001F9E720E9
:10A7100003F07AF9FEF7ACFCB042344D76DB01234E
:10A720002E656B73637B314D002B00F0AD80AB7BEE
:10A73000BBB9FEF7A9FB002811D002DA4FF47F0065
:10A7400007E0012801D1304803E0022803D14FF08F
:10A75000FF1003F0DDF8E72003F056F901E00123D4
:10A76000AB73FEF755FB002840F08E80E073A073BA
:10A77000607389E095F85730002BA6D1642002F071
:10A7800071FF05F1540001F079FB9EE7FEF738FCFC
:10A7900000234FF47F40E373A373637303F0B8F8AF
:10A7A000E72002B0BDE8F04103F02EB95B7C002B3E
:10A7B000A7D04FF47F0003F0ABF8637C0B4D03F0A0
:10A7C000FF02002B95D0E72003F01EF94FF4FA703A
:10A7D00002F048FFE72003F025F94FF4FA7002F089
:10A7E00041FF6B7C013BDBB26B74E6E77015002028
:10A7F000A3B40108F1860108B3020020BA020020C8
:10A80000BF020020C41500200060FF0095F84C2016
:10A8100002F0FF03002A37D12A6D0132022A2A658D
:10A820000BD1012185F84C10194904208DE8060050
:10A8300040F2A321174A04F0AFF8FEF765FB0028A9
:10A8400014DA236D0133022B23650DD1124A012145
:10A8500082F84C100E4A04208DE80C004FF42B7146
:10A860000C4A002304F098F8022300E003236374E9
:10A87000637C0E2084F82F300121084B032201F065
:10A880003DFB002363734DE702B0BDE8F08100BFDC
:10A89000B5B40108F1860108701500209F1500204D
:10A8A00013B5084C002100910A460B462046FEF7DE
:10A8B000EDFF0549054A204602B0BDE810400AF008
:10A8C000E5BA00BF001600201D71000868060020D0
:10A8D0007047000007B5064B052000935821054A34
:10A8E000002304F059F8012004F0A4F8FEE700BFAB
:10A8F000E8B401080887010807B5064B0520009356
:10A900006821054A002304F047F8032004F092F878
:10A91000FEE700BFF2B401082187010807B5064B26
:10A92000052000937821054A002304F035F804201F
:10A9300004F080F8FEE700BFFCB401083A87010884
:10A9400007B5064B052000938821054A002304F033
:10A9500023F8052004F06EF8FEE700BF05B50108F6
:10A960005287010870477047704708B503F0C6FD6D
:10A97000BDE80840FCF790BE08B5024B0BB1AFF341
:10A98000008008BD0000000008B5024B0BB1FFF7C6
:10A99000D3FA08BD399F000808B5024B0BB1FFF789
:10A9A000C5FA08BD2D9F000808B5024B0BB1FFF793
:10A9B0003DF808BD2D9A000808B5012005F074F88F
:10A9C00038B1012005F07EF8024B13B10020FEF7EC
:10A9D0001DFF08BD0D98000808B5022005F064F8B9
:10A9E00038B1022005F06EF8024B13B10120FEF7DA
:10A9F0000DFF08BD0D98000808B5042005F054F8B7
:10AA000078B1042005F05EF80020064B014618805E
:10AA100003F0B0F8BDE8084003481021012205F01A
:10AA200016BD08BD4C160020002C014008B50820BA
:10AA300005F03AF838B1082005F044F8024B13B19C
:10AA40000320FEF7E3FE08BD0D98000808B51020AE
:10AA500005F02AF838B1102005F034F8024B13B194
:10AA60000420FEF7D3FE08BD0D98000808B520208D
:10AA700005F01AF838B1202005F024F80E4B13B178
:10AA80000520FEF7C3FE402005F00EF838B1402047
:10AA900005F018F8084B13B10620FEF7B7FE80202A
:10AAA00005F002F838B1802005F00CF8024B13B124
:10AAB0000720FEF7ABFE08BD0D98000808B54FF45F
:10AAC000005004F0F1FF40B14FF4005004F0FAFFE1
:10AAD000174B13B10D20FEF799FE4FF4804004F0A0
